{
  "_format": "hh-sol-artifact-1",
  "contractName": "NFTMart2",
  "sourceName": "contracts/update.sol",
  "abi": [
    {
      "inputs": [
        {
          "internalType": "address",
          "name": "target",
          "type": "address"
        }
      ],
      "name": "AddressEmptyCode",
      "type": "error"
    },
    {
      "inputs": [
        {
          "internalType": "address",
          "name": "implementation",
          "type": "address"
        }
      ],
      "name": "ERC1967InvalidImplementation",
      "type": "error"
    },
    {
      "inputs": [],
      "name": "ERC1967NonPayable",
      "type": "error"
    },
    {
      "inputs": [],
      "name": "FailedCall",
      "type": "error"
    },
    {
      "inputs": [],
      "name": "InvalidInitialization",
      "type": "error"
    },
    {
      "inputs": [],
      "name": "NotInitializing",
      "type": "error"
    },
    {
      "inputs": [
        {
          "internalType": "address",
          "name": "owner",
          "type": "address"
        }
      ],
      "name": "OwnableInvalidOwner",
      "type": "error"
    },
    {
      "inputs": [
        {
          "internalType": "address",
          "name": "account",
          "type": "address"
        }
      ],
      "name": "OwnableUnauthorizedAccount",
      "type": "error"
    },
    {
      "inputs": [],
      "name": "UUPSUnauthorizedCallContext",
      "type": "error"
    },
    {
      "inputs": [
        {
          "internalType": "bytes32",
          "name": "slot",
          "type": "bytes32"
        }
      ],
      "name": "UUPSUnsupportedProxiableUUID",
      "type": "error"
    },
    {
      "anonymous": false,
      "inputs": [
        {
          "indexed": false,
          "internalType": "uint64",
          "name": "version",
          "type": "uint64"
        }
      ],
      "name": "Initialized",
      "type": "event"
    },
    {
      "anonymous": false,
      "inputs": [
        {
          "indexed": true,
          "internalType": "address",
          "name": "previousOwner",
          "type": "address"
        },
        {
          "indexed": true,
          "internalType": "address",
          "name": "newOwner",
          "type": "address"
        }
      ],
      "name": "OwnershipTransferred",
      "type": "event"
    },
    {
      "anonymous": false,
      "inputs": [
        {
          "indexed": true,
          "internalType": "address",
          "name": "implementation",
          "type": "address"
        }
      ],
      "name": "Upgraded",
      "type": "event"
    },
    {
      "inputs": [
        {
          "internalType": "string",
          "name": "name",
          "type": "string"
        },
        {
          "internalType": "uint256",
          "name": "price",
          "type": "uint256"
        },
        {
          "internalType": "string",
          "name": "image_url",
          "type": "string"
        },
        {
          "internalType": "string",
          "name": "details",
          "type": "string"
        },
        {
          "internalType": "enum NFTMart.Category",
          "name": "category",
          "type": "uint8"
        }
      ],
      "name": "AddItems",
      "outputs": [],
      "stateMutability": "nonpayable",
      "type": "function"
    },
    {
      "inputs": [],
      "name": "MyNfts",
      "outputs": [
        {
          "components": [
            {
              "internalType": "string",
              "name": "name",
              "type": "string"
            },
            {
              "internalType": "uint256",
              "name": "price",
              "type": "uint256"
            },
            {
              "internalType": "string",
              "name": "image",
              "type": "string"
            },
            {
              "internalType": "string",
              "name": "details",
              "type": "string"
            },
            {
              "internalType": "enum NFTMart.Category",
              "name": "category",
              "type": "uint8"
            },
            {
              "internalType": "address",
              "name": "owner",
              "type": "address"
            },
            {
              "internalType": "bool",
              "name": "isSold",
              "type": "bool"
            },
            {
              "internalType": "uint256",
              "name": "tokenId",
              "type": "uint256"
            }
          ],
          "internalType": "struct NFTMart.NFT[]",
          "name": "",
          "type": "tuple[]"
        },
        {
          "components": [
            {
              "internalType": "string",
              "name": "name",
              "type": "string"
            },
            {
              "internalType": "uint256",
              "name": "price",
              "type": "uint256"
            },
            {
              "internalType": "string",
              "name": "image",
              "type": "string"
            },
            {
              "internalType": "string",
              "name": "details",
              "type": "string"
            },
            {
              "internalType": "enum NFTMart.Category",
              "name": "category",
              "type": "uint8"
            },
            {
              "internalType": "address",
              "name": "owner",
              "type": "address"
            },
            {
              "internalType": "bool",
              "name": "isSold",
              "type": "bool"
            },
            {
              "internalType": "uint256",
              "name": "tokenId",
              "type": "uint256"
            }
          ],
          "internalType": "struct NFTMart.NFT[]",
          "name": "",
          "type": "tuple[]"
        }
      ],
      "stateMutability": "view",
      "type": "function"
    },
    {
      "inputs": [],
      "name": "NftList",
      "outputs": [
        {
          "components": [
            {
              "internalType": "string",
              "name": "name",
              "type": "string"
            },
            {
              "internalType": "uint256",
              "name": "price",
              "type": "uint256"
            },
            {
              "internalType": "string",
              "name": "image",
              "type": "string"
            },
            {
              "internalType": "string",
              "name": "details",
              "type": "string"
            },
            {
              "internalType": "enum NFTMart.Category",
              "name": "category",
              "type": "uint8"
            },
            {
              "internalType": "address",
              "name": "owner",
              "type": "address"
            },
            {
              "internalType": "bool",
              "name": "isSold",
              "type": "bool"
            },
            {
              "internalType": "uint256",
              "name": "tokenId",
              "type": "uint256"
            }
          ],
          "internalType": "struct NFTMart.NFT[]",
          "name": "",
          "type": "tuple[]"
        }
      ],
      "stateMutability": "view",
      "type": "function"
    },
    {
      "inputs": [
        {
          "internalType": "enum NFTMart.Category",
          "name": "category",
          "type": "uint8"
        }
      ],
      "name": "NftListByCategry",
      "outputs": [
        {
          "components": [
            {
              "internalType": "string",
              "name": "name",
              "type": "string"
            },
            {
              "internalType": "uint256",
              "name": "price",
              "type": "uint256"
            },
            {
              "internalType": "string",
              "name": "image",
              "type": "string"
            },
            {
              "internalType": "string",
              "name": "details",
              "type": "string"
            },
            {
              "internalType": "enum NFTMart.Category",
              "name": "category",
              "type": "uint8"
            },
            {
              "internalType": "address",
              "name": "owner",
              "type": "address"
            },
            {
              "internalType": "bool",
              "name": "isSold",
              "type": "bool"
            },
            {
              "internalType": "uint256",
              "name": "tokenId",
              "type": "uint256"
            }
          ],
          "internalType": "struct NFTMart.NFT[]",
          "name": "",
          "type": "tuple[]"
        }
      ],
      "stateMutability": "view",
      "type": "function"
    },
    {
      "inputs": [
        {
          "internalType": "address",
          "name": "_address",
          "type": "address"
        }
      ],
      "name": "SetNftAddress",
      "outputs": [],
      "stateMutability": "nonpayable",
      "type": "function"
    },
    {
      "inputs": [],
      "name": "UPGRADE_INTERFACE_VERSION",
      "outputs": [
        {
          "internalType": "string",
          "name": "",
          "type": "string"
        }
      ],
      "stateMutability": "view",
      "type": "function"
    },
    {
      "inputs": [
        {
          "internalType": "uint256",
          "name": "id",
          "type": "uint256"
        }
      ],
      "name": "buyItem",
      "outputs": [],
      "stateMutability": "payable",
      "type": "function"
    },
    {
      "inputs": [
        {
          "internalType": "uint256",
          "name": "id",
          "type": "uint256"
        }
      ],
      "name": "deleteItem",
      "outputs": [],
      "stateMutability": "nonpayable",
      "type": "function"
    },
    {
      "inputs": [],
      "name": "initialize",
      "outputs": [],
      "stateMutability": "nonpayable",
      "type": "function"
    },
    {
      "inputs": [
        {
          "internalType": "address",
          "name": "",
          "type": "address"
        }
      ],
      "name": "myNftCount",
      "outputs": [
        {
          "internalType": "uint256",
          "name": "",
          "type": "uint256"
        }
      ],
      "stateMutability": "view",
      "type": "function"
    },
    {
      "inputs": [
        {
          "internalType": "uint256",
          "name": "",
          "type": "uint256"
        }
      ],
      "name": "nftList",
      "outputs": [
        {
          "internalType": "string",
          "name": "name",
          "type": "string"
        },
        {
          "internalType": "uint256",
          "name": "price",
          "type": "uint256"
        },
        {
          "internalType": "string",
          "name": "image",
          "type": "string"
        },
        {
          "internalType": "string",
          "name": "details",
          "type": "string"
        },
        {
          "internalType": "enum NFTMart.Category",
          "name": "category",
          "type": "uint8"
        },
        {
          "internalType": "address",
          "name": "owner",
          "type": "address"
        },
        {
          "internalType": "bool",
          "name": "isSold",
          "type": "bool"
        },
        {
          "internalType": "uint256",
          "name": "tokenId",
          "type": "uint256"
        }
      ],
      "stateMutability": "view",
      "type": "function"
    },
    {
      "inputs": [],
      "name": "nftListLength",
      "outputs": [
        {
          "internalType": "uint256",
          "name": "",
          "type": "uint256"
        }
      ],
      "stateMutability": "view",
      "type": "function"
    },
    {
      "inputs": [],
      "name": "owner",
      "outputs": [
        {
          "internalType": "address",
          "name": "",
          "type": "address"
        }
      ],
      "stateMutability": "view",
      "type": "function"
    },
    {
      "inputs": [],
      "name": "proxiableUUID",
      "outputs": [
        {
          "internalType": "bytes32",
          "name": "",
          "type": "bytes32"
        }
      ],
      "stateMutability": "view",
      "type": "function"
    },
    {
      "inputs": [],
      "name": "renounceOwnership",
      "outputs": [],
      "stateMutability": "nonpayable",
      "type": "function"
    },
    {
      "inputs": [
        {
          "internalType": "address",
          "name": "newOwner",
          "type": "address"
        }
      ],
      "name": "transferOwnership",
      "outputs": [],
      "stateMutability": "nonpayable",
      "type": "function"
    },
    {
      "inputs": [
        {
          "internalType": "address",
          "name": "newImplementation",
          "type": "address"
        },
        {
          "internalType": "bytes",
          "name": "data",
          "type": "bytes"
        }
      ],
      "name": "upgradeToAndCall",
      "outputs": [],
      "stateMutability": "payable",
      "type": "function"
    }
  ],
  "bytecode": "0x60a06040523073ffffffffffffffffffffffffffffffffffffffff1660809073ffffffffffffffffffffffffffffffffffffffff16815250348015604257600080fd5b5060805161408761006c600039600081816124d50152818161252a01526126e501526140876000f3fe6080604052600436106100fe5760003560e01c806375bea16611610095578063ad3cb1cc11610064578063ad3cb1cc1461030c578063bd824e6c14610337578063e7fb74c714610360578063ec3199d61461037c578063f2fde38b146103a5576100fe565b806375bea1661461025b5780638129fc1c1461029f5780638da5cb5b146102b65780639eb067f5146102e1576100fe565b806352d1902d116100d157806352d1902d146101b3578063654fc833146101de578063687a8ddd14610207578063715018a614610244576100fe565b8063059fe6001461010357806323c7fccd1461014057806326c9b7841461016b5780634f1ef28614610197575b600080fd5b34801561010f57600080fd5b5061012a60048036038101906101259190612eaf565b6103ce565b6040516101379190612ef5565b60405180910390f35b34801561014c57600080fd5b506101556103e6565b60405161016291906131d0565b60405180910390f35b34801561017757600080fd5b506101806108e1565b60405161018e9291906131f2565b60405180910390f35b6101b160048036038101906101ac919061335e565b6111ad565b005b3480156101bf57600080fd5b506101c86111cc565b6040516101d591906133d3565b60405180910390f35b3480156101ea57600080fd5b506102056004803603810190610200919061341a565b6111ff565b005b34801561021357600080fd5b5061022e6004803603810190610229919061346c565b6114f2565b60405161023b91906131d0565b60405180910390f35b34801561025057600080fd5b506102596119b9565b005b34801561026757600080fd5b50610282600480360381019061027d919061341a565b6119cd565b604051610296989796959493929190613510565b60405180910390f35b3480156102ab57600080fd5b506102b4611bf7565b005b3480156102c257600080fd5b506102cb611d8d565b6040516102d891906135a3565b60405180910390f35b3480156102ed57600080fd5b506102f6611dc5565b6040516103039190612ef5565b60405180910390f35b34801561031857600080fd5b50610321611dd2565b60405161032e91906135be565b60405180910390f35b34801561034357600080fd5b5061035e60048036038101906103599190612eaf565b611e0b565b005b61037a6004803603810190610375919061341a565b611e56565b005b34801561038857600080fd5b506103a3600480360381019061039e9190613681565b612150565b005b3480156103b157600080fd5b506103cc60048036038101906103c79190612eaf565b61244d565b005b60026020528060005260406000206000915090505481565b60606000805b6103f4611dc5565b8110156104d2573373ffffffffffffffffffffffffffffffffffffffff166001828154811061042657610425613750565b5b906000526020600020906006020160040160019054906101000a900473ffffffffffffffffffffffffffffffffffffffff1673ffffffffffffffffffffffffffffffffffffffff161480156104b15750600015156001828154811061048e5761048d613750565b5b906000526020600020906006020160040160159054906101000a900460ff161515145b156104c55781806104c1906137ae565b9250505b80806001019150506103ec565b5060008167ffffffffffffffff8111156104ef576104ee613233565b5b60405190808252806020026020018201604052801561052857816020015b610515612d71565b81526020019060019003908161050d5790505b5090506000805b610537611dc5565b8110156108d7573373ffffffffffffffffffffffffffffffffffffffff166001828154811061056957610568613750565b5b906000526020600020906006020160040160019054906101000a900473ffffffffffffffffffffffffffffffffffffffff1673ffffffffffffffffffffffffffffffffffffffff161480156105f4575060001515600182815481106105d1576105d0613750565b5b906000526020600020906006020160040160159054906101000a900460ff161515145b156108ca576001818154811061060d5761060c613750565b5b90600052602060002090600602016040518061010001604052908160008201805461063790613825565b80601f016020809104026020016040519081016040528092919081815260200182805461066390613825565b80156106b05780601f10610685576101008083540402835291602001916106b0565b820191906000526020600020905b81548152906001019060200180831161069357829003601f168201915b50505050508152602001600182015481526020016002820180546106d390613825565b80601f01602080910402602001604051908101604052809291908181526020018280546106ff90613825565b801561074c5780601f106107215761010080835404028352916020019161074c565b820191906000526020600020905b81548152906001019060200180831161072f57829003601f168201915b5050505050815260200160038201805461076590613825565b80601f016020809104026020016040519081016040528092919081815260200182805461079190613825565b80156107de5780601f106107b3576101008083540402835291602001916107de565b820191906000526020600020905b8154815290600101906020018083116107c157829003601f168201915b505050505081526020016004820160009054906101000a900460ff16600581111561080c5761080b612fdb565b5b600581111561081e5761081d612fdb565b5b81526020016004820160019054906101000a900473ffffffffffffffffffffffffffffffffffffffff1673ffffffffffffffffffffffffffffffffffffffff1673ffffffffffffffffffffffffffffffffffffffff1681526020016004820160159054906101000a900460ff161515151581526020016005820154815250508383815181106108b0576108af613750565b5b602002602001018190525081806108c6906137ae565b9250505b808060010191505061052f565b5081935050505090565b60608060008060005b6001805490508110156109d8573373ffffffffffffffffffffffffffffffffffffffff166001828154811061092257610921613750565b5b906000526020600020906006020160040160019054906101000a900473ffffffffffffffffffffffffffffffffffffffff1673ffffffffffffffffffffffffffffffffffffffff16036109cb57828061097a906137ae565b935050600015156001828154811061099557610994613750565b5b906000526020600020906006020160040160159054906101000a900460ff161515036109ca5781806109c6906137ae565b9250505b5b80806001019150506108ea565b5060008267ffffffffffffffff8111156109f5576109f4613233565b5b604051908082528060200260200182016040528015610a2e57816020015b610a1b612d71565b815260200190600190039081610a135790505b50905060008267ffffffffffffffff811115610a4d57610a4c613233565b5b604051908082528060200260200182016040528015610a8657816020015b610a73612d71565b815260200190600190039081610a6b5790505b50905060008060005b600180549050811015610df2573373ffffffffffffffffffffffffffffffffffffffff1660018281548110610ac757610ac6613750565b5b906000526020600020906006020160040160019054906101000a900473ffffffffffffffffffffffffffffffffffffffff1673ffffffffffffffffffffffffffffffffffffffff1603610de55760018181548110610b2857610b27613750565b5b906000526020600020906006020160405180610100016040529081600082018054610b5290613825565b80601f0160208091040260200160405190810160405280929190818152602001828054610b7e90613825565b8015610bcb5780601f10610ba057610100808354040283529160200191610bcb565b820191906000526020600020905b815481529060010190602001808311610bae57829003601f168201915b5050505050815260200160018201548152602001600282018054610bee90613825565b80601f0160208091040260200160405190810160405280929190818152602001828054610c1a90613825565b8015610c675780601f10610c3c57610100808354040283529160200191610c67565b820191906000526020600020905b815481529060010190602001808311610c4a57829003601f168201915b50505050508152602001600382018054610c8090613825565b80601f0160208091040260200160405190810160405280929190818152602001828054610cac90613825565b8015610cf95780601f10610cce57610100808354040283529160200191610cf9565b820191906000526020600020905b815481529060010190602001808311610cdc57829003601f168201915b505050505081526020016004820160009054906101000a900460ff166005811115610d2757610d26612fdb565b5b6005811115610d3957610d38612fdb565b5b81526020016004820160019054906101000a900473ffffffffffffffffffffffffffffffffffffffff1673ffffffffffffffffffffffffffffffffffffffff1673ffffffffffffffffffffffffffffffffffffffff1681526020016004820160159054906101000a900460ff16151515158152602001600582015481525050858481518110610dcb57610dca613750565b5b60200260200101819052508280610de1906137ae565b9350505b8080600101915050610a8f565b5060005b60018054905081101561119c573373ffffffffffffffffffffffffffffffffffffffff1660018281548110610e2e57610e2d613750565b5b906000526020600020906006020160040160019054906101000a900473ffffffffffffffffffffffffffffffffffffffff1673ffffffffffffffffffffffffffffffffffffffff16148015610eb957506001151560018281548110610e9657610e95613750565b5b906000526020600020906006020160040160159054906101000a900460ff161515145b1561118f5760018181548110610ed257610ed1613750565b5b906000526020600020906006020160405180610100016040529081600082018054610efc90613825565b80601f0160208091040260200160405190810160405280929190818152602001828054610f2890613825565b8015610f755780601f10610f4a57610100808354040283529160200191610f75565b820191906000526020600020905b815481529060010190602001808311610f5857829003601f168201915b5050505050815260200160018201548152602001600282018054610f9890613825565b80601f0160208091040260200160405190810160405280929190818152602001828054610fc490613825565b80156110115780601f10610fe657610100808354040283529160200191611011565b820191906000526020600020905b815481529060010190602001808311610ff457829003601f168201915b5050505050815260200160038201805461102a90613825565b80601f016020809104026020016040519081016040528092919081815260200182805461105690613825565b80156110a35780601f10611078576101008083540402835291602001916110a3565b820191906000526020600020905b81548152906001019060200180831161108657829003601f168201915b505050505081526020016004820160009054906101000a900460ff1660058111156110d1576110d0612fdb565b5b60058111156110e3576110e2612fdb565b5b81526020016004820160019054906101000a900473ffffffffffffffffffffffffffffffffffffffff1673ffffffffffffffffffffffffffffffffffffffff1673ffffffffffffffffffffffffffffffffffffffff1681526020016004820160159054906101000a900460ff1615151515815260200160058201548152505084838151811061117557611174613750565b5b6020026020010181905250818061118b906137ae565b9250505b8080600101915050610df6565b508383975097505050505050509091565b6111b56124d3565b6111be826125b9565b6111c882826125c4565b5050565b60006111d66126e3565b7f360894a13ba1a3210667c828492db98dca3e2076cc3735a920a3ca505d382bbc60001b905090565b3373ffffffffffffffffffffffffffffffffffffffff166001828154811061122a57611229613750565b5b906000526020600020906006020160040160019054906101000a900473ffffffffffffffffffffffffffffffffffffffff1673ffffffffffffffffffffffffffffffffffffffff16146112b2576040517f08c379a00000000000000000000000000000000000000000000000000000000081526004016112a9906138a2565b60405180910390fd5b60006112bc611dc5565b9050600180826112cc91906138c2565b815481106112dd576112dc613750565b5b9060005260206000209060060201600183815481106112ff576112fe613750565b5b9060005260206000209060060201600082018160000190816113219190613ab8565b5060018201548160010155600282018160020190816113409190613ab8565b50600382018160030190816113559190613ab8565b506004820160009054906101000a900460ff168160040160006101000a81548160ff0219169083600581111561138e5761138d612fdb565b5b02179055506004820160019054906101000a900473ffffffffffffffffffffffffffffffffffffffff168160040160016101000a81548173ffffffffffffffffffffffffffffffffffffffff021916908373ffffffffffffffffffffffffffffffffffffffff1602179055506004820160159054906101000a900460ff168160040160156101000a81548160ff02191690831515021790555060058201548160050155905050600180548061144657611445613ba0565b5b60019003818190600052602060002090600602016000808201600061146b9190612de0565b60018201600090556002820160006114839190612de0565b6003820160006114939190612de0565b6004820160006101000a81549060ff02191690556004820160016101000a81549073ffffffffffffffffffffffffffffffffffffffff02191690556004820160156101000a81549060ff02191690556005820160009055505090555050565b6060600080600090505b6001805490508110156115c55783600581111561151c5761151b612fdb565b5b600182815481106115305761152f613750565b5b906000526020600020906006020160040160009054906101000a900460ff16600581111561156157611560612fdb565b5b1480156115a45750600015156001828154811061158157611580613750565b5b906000526020600020906006020160040160159054906101000a900460ff161515145b156115b85781806115b4906137ae565b9250505b80806001019150506114fc565b5060008167ffffffffffffffff8111156115e2576115e1613233565b5b60405190808252806020026020018201604052801561161b57816020015b611608612d71565b8152602001906001900390816116005790505b5090506000805b6001805490508110156119ad5785600581111561164257611641612fdb565b5b6001828154811061165657611655613750565b5b906000526020600020906006020160040160009054906101000a900460ff16600581111561168757611686612fdb565b5b1480156116ca575060001515600182815481106116a7576116a6613750565b5b906000526020600020906006020160040160159054906101000a900460ff161515145b156119a057600181815481106116e3576116e2613750565b5b90600052602060002090600602016040518061010001604052908160008201805461170d90613825565b80601f016020809104026020016040519081016040528092919081815260200182805461173990613825565b80156117865780601f1061175b57610100808354040283529160200191611786565b820191906000526020600020905b81548152906001019060200180831161176957829003601f168201915b50505050508152602001600182015481526020016002820180546117a990613825565b80601f01602080910402602001604051908101604052809291908181526020018280546117d590613825565b80156118225780601f106117f757610100808354040283529160200191611822565b820191906000526020600020905b81548152906001019060200180831161180557829003601f168201915b5050505050815260200160038201805461183b90613825565b80601f016020809104026020016040519081016040528092919081815260200182805461186790613825565b80156118b45780601f10611889576101008083540402835291602001916118b4565b820191906000526020600020905b81548152906001019060200180831161189757829003601f168201915b505050505081526020016004820160009054906101000a900460ff1660058111156118e2576118e1612fdb565b5b60058111156118f4576118f3612fdb565b5b81526020016004820160019054906101000a900473ffffffffffffffffffffffffffffffffffffffff1673ffffffffffffffffffffffffffffffffffffffff1673ffffffffffffffffffffffffffffffffffffffff1681526020016004820160159054906101000a900460ff1615151515815260200160058201548152505083838151811061198657611985613750565b5b6020026020010181905250818061199c906137ae565b9250505b8080600101915050611622565b50819350505050919050565b6119c161276a565b6119cb60006127f1565b565b600181815481106119dd57600080fd5b9060005260206000209060060201600091509050806000018054611a0090613825565b80601f0160208091040260200160405190810160405280929190818152602001828054611a2c90613825565b8015611a795780601f10611a4e57610100808354040283529160200191611a79565b820191906000526020600020905b815481529060010190602001808311611a5c57829003601f168201915b505050505090806001015490806002018054611a9490613825565b80601f0160208091040260200160405190810160405280929190818152602001828054611ac090613825565b8015611b0d5780601f10611ae257610100808354040283529160200191611b0d565b820191906000526020600020905b815481529060010190602001808311611af057829003601f168201915b505050505090806003018054611b2290613825565b80601f0160208091040260200160405190810160405280929190818152602001828054611b4e90613825565b8015611b9b5780601f10611b7057610100808354040283529160200191611b9b565b820191906000526020600020905b815481529060010190602001808311611b7e57829003601f168201915b5050505050908060040160009054906101000a900460ff16908060040160019054906101000a900473ffffffffffffffffffffffffffffffffffffffff16908060040160159054906101000a900460ff16908060050154905088565b6000611c016128c8565b905060008160000160089054906101000a900460ff1615905060008260000160009054906101000a900467ffffffffffffffff1690506000808267ffffffffffffffff16148015611c4f5750825b9050600060018367ffffffffffffffff16148015611c84575060003073ffffffffffffffffffffffffffffffffffffffff163b145b905081158015611c92575080155b15611cc9576040517ff92ee8a900000000000000000000000000000000000000000000000000000000815260040160405180910390fd5b60018560000160006101000a81548167ffffffffffffffff021916908367ffffffffffffffff1602179055508315611d195760018560000160086101000a81548160ff0219169083151502179055505b611d22336128dc565b611d2a6128f0565b8315611d865760008560000160086101000a81548160ff0219169083151502179055507fc7f505b2f371ae2175ee4913f4499e1f2633a7b5936321eed1cdaeb6115181d26001604051611d7d9190613c1e565b60405180910390a15b5050505050565b600080611d986128fa565b90508060000160009054906101000a900473ffffffffffffffffffffffffffffffffffffffff1691505090565b6000600180549050905090565b6040518060400160405280600581526020017f352e302e3000000000000000000000000000000000000000000000000000000081525081565b611e1361276a565b806000806101000a81548173ffffffffffffffffffffffffffffffffffffffff021916908373ffffffffffffffffffffffffffffffffffffffff16021790555050565b600060018281548110611e6c57611e6b613750565b5b9060005260206000209060060201905080600101543414611ec2576040517f08c379a0000000000000000000000000000000000000000000000000000000008152600401611eb990613c85565b60405180910390fd5b8060040160019054906101000a900473ffffffffffffffffffffffffffffffffffffffff1673ffffffffffffffffffffffffffffffffffffffff163373ffffffffffffffffffffffffffffffffffffffff1603611f54576040517f08c379a0000000000000000000000000000000000000000000000000000000008152600401611f4b90613cf1565b60405180910390fd5b600015158160040160159054906101000a900460ff16151514611fac576040517f08c379a0000000000000000000000000000000000000000000000000000000008152600401611fa390613d5d565b60405180910390fd5b60008160040160019054906101000a900473ffffffffffffffffffffffffffffffffffffffff1690508073ffffffffffffffffffffffffffffffffffffffff166108fc6064606234611ffe9190613d7d565b6120089190613dee565b9081150290604051600060405180830381858888f19350505050158015612033573d6000803e3d6000fd5b5060008054906101000a900473ffffffffffffffffffffffffffffffffffffffff1673ffffffffffffffffffffffffffffffffffffffff166323b872dd8360040160019054906101000a900473ffffffffffffffffffffffffffffffffffffffff163385600501546040518463ffffffff1660e01b81526004016120b993929190613e1f565b600060405180830381600087803b1580156120d357600080fd5b505af11580156120e7573d6000803e3d6000fd5b50505050338260040160016101000a81548173ffffffffffffffffffffffffffffffffffffffff021916908373ffffffffffffffffffffffffffffffffffffffff16021790555060018260040160156101000a81548160ff021916908315150217905550505050565b60008060009054906101000a900473ffffffffffffffffffffffffffffffffffffffff1673ffffffffffffffffffffffffffffffffffffffff166317d70f7c6040518163ffffffff1660e01b8152600401602060405180830381865afa1580156121be573d6000803e3d6000fd5b505050506040513d601f19601f820116820180604052508101906121e29190613e6b565b9050600160405180610100016040528088815260200187815260200186815260200185815260200184600581111561221d5761221c612fdb565b5b81526020013373ffffffffffffffffffffffffffffffffffffffff16815260200160001515815260200183815250908060018154018082558091505060019003906000526020600020906006020160009091909190915060008201518160000190816122899190613e98565b506020820151816001015560408201518160020190816122a99190613e98565b5060608201518160030190816122bf9190613e98565b5060808201518160040160006101000a81548160ff021916908360058111156122eb576122ea612fdb565b5b021790555060a08201518160040160016101000a81548173ffffffffffffffffffffffffffffffffffffffff021916908373ffffffffffffffffffffffffffffffffffffffff16021790555060c08201518160040160156101000a81548160ff02191690831515021790555060e08201518160050155505060008054906101000a900473ffffffffffffffffffffffffffffffffffffffff1673ffffffffffffffffffffffffffffffffffffffff1663a06b4ca133866040518363ffffffff1660e01b81526004016123be929190613f6a565b600060405180830381600087803b1580156123d857600080fd5b505af11580156123ec573d6000803e3d6000fd5b50505050600260003373ffffffffffffffffffffffffffffffffffffffff1673ffffffffffffffffffffffffffffffffffffffff1681526020019081526020016000206000815480929190612440906137ae565b9190505550505050505050565b61245561276a565b600073ffffffffffffffffffffffffffffffffffffffff168173ffffffffffffffffffffffffffffffffffffffff16036124c75760006040517f1e4fbdf70000000000000000000000000000000000000000000000000000000081526004016124be91906135a3565b60405180910390fd5b6124d0816127f1565b50565b7f000000000000000000000000000000000000000000000000000000000000000073ffffffffffffffffffffffffffffffffffffffff163073ffffffffffffffffffffffffffffffffffffffff16148061258057507f000000000000000000000000000000000000000000000000000000000000000073ffffffffffffffffffffffffffffffffffffffff16612567612922565b73ffffffffffffffffffffffffffffffffffffffff1614155b156125b7576040517fe07c8dba00000000000000000000000000000000000000000000000000000000815260040160405180910390fd5b565b6125c161276a565b50565b8173ffffffffffffffffffffffffffffffffffffffff166352d1902d6040518163ffffffff1660e01b8152600401602060405180830381865afa92505050801561262c57506040513d601f19601f820116820180604052508101906126299190613fc6565b60015b61266d57816040517f4c9c8ce300000000000000000000000000000000000000000000000000000000815260040161266491906135a3565b60405180910390fd5b7f360894a13ba1a3210667c828492db98dca3e2076cc3735a920a3ca505d382bbc60001b81146126d457806040517faa1d49a40000000000000000000000000000000000000000000000000000000081526004016126cb91906133d3565b60405180910390fd5b6126de8383612979565b505050565b7f000000000000000000000000000000000000000000000000000000000000000073ffffffffffffffffffffffffffffffffffffffff163073ffffffffffffffffffffffffffffffffffffffff1614612768576040517fe07c8dba00000000000000000000000000000000000000000000000000000000815260040160405180910390fd5b565b6127726129ec565b73ffffffffffffffffffffffffffffffffffffffff16612790611d8d565b73ffffffffffffffffffffffffffffffffffffffff16146127ef576127b36129ec565b6040517f118cdaa70000000000000000000000000000000000000000000000000000000081526004016127e691906135a3565b60405180910390fd5b565b60006127fb6128fa565b905060008160000160009054906101000a900473ffffffffffffffffffffffffffffffffffffffff169050828260000160006101000a81548173ffffffffffffffffffffffffffffffffffffffff021916908373ffffffffffffffffffffffffffffffffffffffff1602179055508273ffffffffffffffffffffffffffffffffffffffff168173ffffffffffffffffffffffffffffffffffffffff167f8be0079c531659141344cd1fd0a4f28419497f9722a3daafe3b4186f6b6457e060405160405180910390a3505050565b6000806128d36129f4565b90508091505090565b6128e4612a1f565b6128ed81612a5f565b50565b6128f8612a1f565b565b60007f9016d09d72d40fdae2fd8ceac6b6234c7706214fd39c1cd1e609a0528c199300905090565b60006129507f360894a13ba1a3210667c828492db98dca3e2076cc3735a920a3ca505d382bbc60001b612ae5565b60000160009054906101000a900473ffffffffffffffffffffffffffffffffffffffff16905090565b61298282612aef565b8173ffffffffffffffffffffffffffffffffffffffff167fbc7cd75a20ee27fd9adebab32041f755214dbc6bffa90cc0225b39da2e5c2d3b60405160405180910390a26000815111156129df576129d98282612bbc565b506129e8565b6129e7612c40565b5b5050565b600033905090565b60007ff0c57e16840df040f15088dc2f81fe391c3923bec73e23a9662efc9c229c6a0060001b905090565b612a27612c7d565b612a5d576040517fd7e6bcf800000000000000000000000000000000000000000000000000000000815260040160405180910390fd5b565b612a67612a1f565b600073ffffffffffffffffffffffffffffffffffffffff168173ffffffffffffffffffffffffffffffffffffffff1603612ad95760006040517f1e4fbdf7000000000000000000000000000000000000000000000000000000008152600401612ad091906135a3565b60405180910390fd5b612ae2816127f1565b50565b6000819050919050565b60008173ffffffffffffffffffffffffffffffffffffffff163b03612b4b57806040517f4c9c8ce3000000000000000000000000000000000000000000000000000000008152600401612b4291906135a3565b60405180910390fd5b80612b787f360894a13ba1a3210667c828492db98dca3e2076cc3735a920a3ca505d382bbc60001b612ae5565b60000160006101000a81548173ffffffffffffffffffffffffffffffffffffffff021916908373ffffffffffffffffffffffffffffffffffffffff16021790555050565b60606000808473ffffffffffffffffffffffffffffffffffffffff1684604051612be6919061403a565b600060405180830381855af49150503d8060008114612c21576040519150601f19603f3d011682016040523d82523d6000602084013e612c26565b606091505b5091509150612c36858383612c9d565b9250505092915050565b6000341115612c7b576040517fb398979f00000000000000000000000000000000000000000000000000000000815260040160405180910390fd5b565b6000612c876128c8565b60000160089054906101000a900460ff16905090565b606082612cb257612cad82612d2c565b612d24565b60008251148015612cda575060008473ffffffffffffffffffffffffffffffffffffffff163b145b15612d1c57836040517f9996b315000000000000000000000000000000000000000000000000000000008152600401612d1391906135a3565b60405180910390fd5b819050612d25565b5b9392505050565b600081511115612d3f5780518082602001fd5b6040517fd6bda27500000000000000000000000000000000000000000000000000000000815260040160405180910390fd5b6040518061010001604052806060815260200160008152602001606081526020016060815260200160006005811115612dad57612dac612fdb565b5b8152602001600073ffffffffffffffffffffffffffffffffffffffff168152602001600015158152602001600081525090565b508054612dec90613825565b6000825580601f10612dfe5750612e1d565b601f016020900490600052602060002090810190612e1c9190612e20565b5b50565b5b80821115612e39576000816000905550600101612e21565b5090565b6000604051905090565b600080fd5b600080fd5b600073ffffffffffffffffffffffffffffffffffffffff82169050919050565b6000612e7c82612e51565b9050919050565b612e8c81612e71565b8114612e9757600080fd5b50565b600081359050612ea981612e83565b92915050565b600060208284031215612ec557612ec4612e47565b5b6000612ed384828501612e9a565b91505092915050565b6000819050919050565b612eef81612edc565b82525050565b6000602082019050612f0a6000830184612ee6565b92915050565b600081519050919050565b600082825260208201905092915050565b6000819050602082019050919050565b600081519050919050565b600082825260208201905092915050565b60005b83811015612f76578082015181840152602081019050612f5b565b60008484015250505050565b6000601f19601f8301169050919050565b6000612f9e82612f3c565b612fa88185612f47565b9350612fb8818560208601612f58565b612fc181612f82565b840191505092915050565b612fd581612edc565b82525050565b7f4e487b7100000000000000000000000000000000000000000000000000000000600052602160045260246000fd5b6006811061301b5761301a612fdb565b5b50565b600081905061302c8261300a565b919050565b600061303c8261301e565b9050919050565b61304c81613031565b82525050565b61305b81612e71565b82525050565b60008115159050919050565b61307681613061565b82525050565b600061010083016000830151848203600086015261309a8282612f93565b91505060208301516130af6020860182612fcc565b50604083015184820360408601526130c78282612f93565b915050606083015184820360608601526130e18282612f93565b91505060808301516130f66080860182613043565b5060a083015161310960a0860182613052565b5060c083015161311c60c086018261306d565b5060e083015161312f60e0860182612fcc565b508091505092915050565b6000613146838361307c565b905092915050565b6000602082019050919050565b600061316682612f10565b6131708185612f1b565b93508360208202850161318285612f2c565b8060005b858110156131be578484038952815161319f858261313a565b94506131aa8361314e565b925060208a01995050600181019050613186565b50829750879550505050505092915050565b600060208201905081810360008301526131ea818461315b565b905092915050565b6000604082019050818103600083015261320c818561315b565b90508181036020830152613220818461315b565b90509392505050565b600080fd5b600080fd5b7f4e487b7100000000000000000000000000000000000000000000000000000000600052604160045260246000fd5b61326b82612f82565b810181811067ffffffffffffffff8211171561328a57613289613233565b5b80604052505050565b600061329d612e3d565b90506132a98282613262565b919050565b600067ffffffffffffffff8211156132c9576132c8613233565b5b6132d282612f82565b9050602081019050919050565b82818337600083830152505050565b60006133016132fc846132ae565b613293565b90508281526020810184848401111561331d5761331c61322e565b5b6133288482856132df565b509392505050565b600082601f83011261334557613344613229565b5b81356133558482602086016132ee565b91505092915050565b6000806040838503121561337557613374612e47565b5b600061338385828601612e9a565b925050602083013567ffffffffffffffff8111156133a4576133a3612e4c565b5b6133b085828601613330565b9150509250929050565b6000819050919050565b6133cd816133ba565b82525050565b60006020820190506133e860008301846133c4565b92915050565b6133f781612edc565b811461340257600080fd5b50565b600081359050613414816133ee565b92915050565b6000602082840312156134305761342f612e47565b5b600061343e84828501613405565b91505092915050565b6006811061345457600080fd5b50565b60008135905061346681613447565b92915050565b60006020828403121561348257613481612e47565b5b600061349084828501613457565b91505092915050565b600082825260208201905092915050565b60006134b582612f3c565b6134bf8185613499565b93506134cf818560208601612f58565b6134d881612f82565b840191505092915050565b6134ec81613031565b82525050565b6134fb81612e71565b82525050565b61350a81613061565b82525050565b600061010082019050818103600083015261352b818b6134aa565b905061353a602083018a612ee6565b818103604083015261354c81896134aa565b9050818103606083015261356081886134aa565b905061356f60808301876134e3565b61357c60a08301866134f2565b61358960c0830185613501565b61359660e0830184612ee6565b9998505050505050505050565b60006020820190506135b860008301846134f2565b92915050565b600060208201905081810360008301526135d881846134aa565b905092915050565b600067ffffffffffffffff8211156135fb576135fa613233565b5b61360482612f82565b9050602081019050919050565b600061362461361f846135e0565b613293565b9050828152602081018484840111156136405761363f61322e565b5b61364b8482856132df565b509392505050565b600082601f83011261366857613667613229565b5b8135613678848260208601613611565b91505092915050565b600080600080600060a0868803121561369d5761369c612e47565b5b600086013567ffffffffffffffff8111156136bb576136ba612e4c565b5b6136c788828901613653565b95505060206136d888828901613405565b945050604086013567ffffffffffffffff8111156136f9576136f8612e4c565b5b61370588828901613653565b935050606086013567ffffffffffffffff81111561372657613725612e4c565b5b61373288828901613653565b925050608061374388828901613457565b9150509295509295909350565b7f4e487b7100000000000000000000000000000000000000000000000000000000600052603260045260246000fd5b7f4e487b7100000000000000000000000000000000000000000000000000000000600052601160045260246000fd5b60006137b982612edc565b91507fffffffffffffffffffffffffffffffffffffffffffffffffffffffffffffffff82036137eb576137ea61377f565b5b600182019050919050565b7f4e487b7100000000000000000000000000000000000000000000000000000000600052602260045260246000fd5b6000600282049050600182168061383d57607f821691505b6020821081036138505761384f6137f6565b5b50919050565b7f596f7520646f6e742068617665207065726d697373696f6e0000000000000000600082015250565b600061388c601883613499565b915061389782613856565b602082019050919050565b600060208201905081810360008301526138bb8161387f565b9050919050565b60006138cd82612edc565b91506138d883612edc565b92508282039050818111156138f0576138ef61377f565b5b92915050565b60008154905061390581613825565b9050919050565b60008190508160005260206000209050919050565b60006020601f8301049050919050565b600082821b905092915050565b60006008830261396e7fffffffffffffffffffffffffffffffffffffffffffffffffffffffffffffffff82613931565b6139788683613931565b95508019841693508086168417925050509392505050565b6000819050919050565b60006139b56139b06139ab84612edc565b613990565b612edc565b9050919050565b6000819050919050565b6139cf8361399a565b6139e36139db826139bc565b84845461393e565b825550505050565b600090565b6139f86139eb565b613a038184846139c6565b505050565b5b81811015613a2757613a1c6000826139f0565b600181019050613a09565b5050565b601f821115613a6c57613a3d8161390c565b613a4684613921565b81016020851015613a55578190505b613a69613a6185613921565b830182613a08565b50505b505050565b600082821c905092915050565b6000613a8f60001984600802613a71565b1980831691505092915050565b6000613aa88383613a7e565b9150826002028217905092915050565b818103613ac6575050613b9e565b613acf826138f6565b67ffffffffffffffff811115613ae857613ae7613233565b5b613af28254613825565b613afd828285613a2b565b6000601f831160018114613b2c5760008415613b1a578287015490505b613b248582613a9c565b865550613b97565b601f198416613b3a8761390c565b9650613b458661390c565b60005b82811015613b6d57848901548255600182019150600185019450602081019050613b48565b86831015613b8a5784890154613b86601f891682613a7e565b8355505b6001600288020188555050505b5050505050505b565b7f4e487b7100000000000000000000000000000000000000000000000000000000600052603160045260246000fd5b6000819050919050565b600067ffffffffffffffff82169050919050565b6000613c08613c03613bfe84613bcf565b613990565b613bd9565b9050919050565b613c1881613bed565b82525050565b6000602082019050613c336000830184613c0f565b92915050565b7f696e76616c642070726963650000000000000000000000000000000000000000600082015250565b6000613c6f600c83613499565b9150613c7a82613c39565b602082019050919050565b60006020820190508181036000830152613c9e81613c62565b9050919050565b7f596f7520616c7265616479206f776e2074686973206974656d00000000000000600082015250565b6000613cdb601983613499565b9150613ce682613ca5565b602082019050919050565b60006020820190508181036000830152613d0a81613cce565b9050919050565b7f4974656d20697320616c726561647920736f6c64000000000000000000000000600082015250565b6000613d47601483613499565b9150613d5282613d11565b602082019050919050565b60006020820190508181036000830152613d7681613d3a565b9050919050565b6000613d8882612edc565b9150613d9383612edc565b9250828202613da181612edc565b91508282048414831517613db857613db761377f565b5b5092915050565b7f4e487b7100000000000000000000000000000000000000000000000000000000600052601260045260246000fd5b6000613df982612edc565b9150613e0483612edc565b925082613e1457613e13613dbf565b5b828204905092915050565b6000606082019050613e3460008301866134f2565b613e4160208301856134f2565b613e4e6040830184612ee6565b949350505050565b600081519050613e65816133ee565b92915050565b600060208284031215613e8157613e80612e47565b5b6000613e8f84828501613e56565b91505092915050565b613ea182612f3c565b67ffffffffffffffff811115613eba57613eb9613233565b5b613ec48254613825565b613ecf828285613a2b565b600060209050601f831160018114613f025760008415613ef0578287015190505b613efa8582613a9c565b865550613f62565b601f198416613f108661390c565b60005b82811015613f3857848901518255600182019150602085019450602081019050613f13565b86831015613f555784890151613f51601f891682613a7e565b8355505b6001600288020188555050505b505050505050565b6000604082019050613f7f60008301856134f2565b8181036020830152613f9181846134aa565b90509392505050565b613fa3816133ba565b8114613fae57600080fd5b50565b600081519050613fc081613f9a565b92915050565b600060208284031215613fdc57613fdb612e47565b5b6000613fea84828501613fb1565b91505092915050565b600081519050919050565b600081905092915050565b600061401482613ff3565b61401e8185613ffe565b935061402e818560208601612f58565b80840191505092915050565b60006140468284614009565b91508190509291505056fea2646970667358221220b0bc62dbe4fc3e928f5b9137bec1481ae2484f14c295a201c254c256716332c264736f6c634300081c0033",
  "linkReferences": {},
  "deployedLinkReferences": {}
}