{
  "_format": "hh-sol-artifact-1",
  "contractName": "DMart",
  "sourceName": "contracts/dmart.sol",
  "abi": [
    {
      "inputs": [
        {
          "internalType": "string",
          "name": "name",
          "type": "string"
        },
        {
          "internalType": "uint256",
          "name": "price",
          "type": "uint256"
        },
        {
          "internalType": "string",
          "name": "image",
          "type": "string"
        }
      ],
      "name": "addItems",
      "outputs": [],
      "stateMutability": "nonpayable",
      "type": "function"
    },
    {
      "inputs": [],
      "name": "admin",
      "outputs": [
        {
          "internalType": "address",
          "name": "",
          "type": "address"
        }
      ],
      "stateMutability": "view",
      "type": "function"
    },
    {
      "inputs": [
        {
          "internalType": "uint256",
          "name": "id",
          "type": "uint256"
        }
      ],
      "name": "buyItem",
      "outputs": [],
      "stateMutability": "payable",
      "type": "function"
    },
    {
      "inputs": [
        {
          "internalType": "uint256",
          "name": "id",
          "type": "uint256"
        }
      ],
      "name": "deleteItem",
      "outputs": [],
      "stateMutability": "nonpayable",
      "type": "function"
    },
    {
      "inputs": [
        {
          "internalType": "uint256",
          "name": "",
          "type": "uint256"
        }
      ],
      "name": "products",
      "outputs": [
        {
          "internalType": "uint256",
          "name": "id",
          "type": "uint256"
        },
        {
          "internalType": "string",
          "name": "name",
          "type": "string"
        },
        {
          "internalType": "uint256",
          "name": "price",
          "type": "uint256"
        },
        {
          "internalType": "string",
          "name": "image",
          "type": "string"
        },
        {
          "internalType": "address",
          "name": "owner",
          "type": "address"
        }
      ],
      "stateMutability": "view",
      "type": "function"
    },
    {
      "inputs": [],
      "name": "productsLength",
      "outputs": [
        {
          "internalType": "uint256",
          "name": "",
          "type": "uint256"
        }
      ],
      "stateMutability": "view",
      "type": "function"
    }
  ],
  "bytecode": "0x6080604052336000806101000a81548173ffffffffffffffffffffffffffffffffffffffff021916908373ffffffffffffffffffffffffffffffffffffffff160217905550348015604f57600080fd5b506114838061005f6000396000f3fe6080604052600436106100555760003560e01c80631ef888fd1461005a578063654fc833146100835780637acc0b20146100ac578063a8ab24bb146100ed578063e7fb74c714610118578063f851a44014610134575b600080fd5b34801561006657600080fd5b50610081600480360381019061007c9190610b40565b61015f565b005b34801561008f57600080fd5b506100aa60048036038101906100a59190610bcb565b61028e565b005b3480156100b857600080fd5b506100d360048036038101906100ce9190610bcb565b6104c4565b6040516100e4959493929190610cc7565b60405180910390f35b3480156100f957600080fd5b5061010261063a565b60405161010f9190610d28565b60405180910390f35b610132600480360381019061012d9190610bcb565b610647565b005b34801561014057600080fd5b5061014961092f565b6040516101569190610d43565b60405180910390f35b600061016961063a565b905060016040518060a001604052808381526020018681526020018581526020018481526020013373ffffffffffffffffffffffffffffffffffffffff1681525090806001815401808255809150506001900390600052602060002090600502016000909190919091506000820151816000015560208201518160010190816101f29190610f6a565b506040820151816002015560608201518160030190816102129190610f6a565b5060808201518160040160006101000a81548173ffffffffffffffffffffffffffffffffffffffff021916908373ffffffffffffffffffffffffffffffffffffffff160217905550505060006002600083815260200190815260200160002060006101000a81548160ff02191690831515021790555050505050565b3373ffffffffffffffffffffffffffffffffffffffff16600182815481106102b9576102b861103c565b5b906000526020600020906005020160040160009054906101000a900473ffffffffffffffffffffffffffffffffffffffff1673ffffffffffffffffffffffffffffffffffffffff1614610341576040517f08c379a0000000000000000000000000000000000000000000000000000000008152600401610338906110b7565b60405180910390fd5b60018061034c61063a565b6103569190611106565b815481106103675761036661103c565b5b9060005260206000209060050201600182815481106103895761038861103c565b5b906000526020600020906005020160008201548160000155600182018160010190816103b59190611150565b5060028201548160020155600382018160030190816103d49190611150565b506004820160009054906101000a900473ffffffffffffffffffffffffffffffffffffffff168160040160006101000a81548173ffffffffffffffffffffffffffffffffffffffff021916908373ffffffffffffffffffffffffffffffffffffffff160217905550905050600180548061045157610450611238565b5b600190038181906000526020600020906005020160008082016000905560018201600061047e9190610953565b60028201600090556003820160006104969190610953565b6004820160006101000a81549073ffffffffffffffffffffffffffffffffffffffff02191690555050905550565b600181815481106104d457600080fd5b90600052602060002090600502016000915090508060000154908060010180546104fd90610d8d565b80601f016020809104026020016040519081016040528092919081815260200182805461052990610d8d565b80156105765780601f1061054b57610100808354040283529160200191610576565b820191906000526020600020905b81548152906001019060200180831161055957829003601f168201915b50505050509080600201549080600301805461059190610d8d565b80601f01602080910402602001604051908101604052809291908181526020018280546105bd90610d8d565b801561060a5780601f106105df5761010080835404028352916020019161060a565b820191906000526020600020905b8154815290600101906020018083116105ed57829003601f168201915b5050505050908060040160009054906101000a900473ffffffffffffffffffffffffffffffffffffffff16905085565b6000600180549050905090565b60006001828154811061065d5761065c61103c565b5b90600052602060002090600502019050806002015434146106b3576040517f08c379a00000000000000000000000000000000000000000000000000000000081526004016106aa906112b3565b60405180910390fd5b8060040160009054906101000a900473ffffffffffffffffffffffffffffffffffffffff1673ffffffffffffffffffffffffffffffffffffffff163373ffffffffffffffffffffffffffffffffffffffff1603610745576040517f08c379a000000000000000000000000000000000000000000000000000000000815260040161073c9061131f565b60405180910390fd5b60001515600260008360000154815260200190815260200160002060009054906101000a900460ff161515146107b0576040517f08c379a00000000000000000000000000000000000000000000000000000000081526004016107a79061138b565b60405180910390fd5b60008160040160009054906101000a900473ffffffffffffffffffffffffffffffffffffffff1690508073ffffffffffffffffffffffffffffffffffffffff166108fc606460623461080291906113ab565b61080c919061141c565b9081150290604051600060405180830381858888f19350505050158015610837573d6000803e3d6000fd5b5060008054906101000a900473ffffffffffffffffffffffffffffffffffffffff1673ffffffffffffffffffffffffffffffffffffffff166108fc606460023461088191906113ab565b61088b919061141c565b9081150290604051600060405180830381858888f193505050501580156108b6573d6000803e3d6000fd5b50338260040160006101000a81548173ffffffffffffffffffffffffffffffffffffffff021916908373ffffffffffffffffffffffffffffffffffffffff1602179055506001600260008460000154815260200190815260200160002060006101000a81548160ff021916908315150217905550505050565b60008054906101000a900473ffffffffffffffffffffffffffffffffffffffff1681565b50805461095f90610d8d565b6000825580601f106109715750610990565b601f01602090049060005260206000209081019061098f9190610993565b5b50565b5b808211156109ac576000816000905550600101610994565b5090565b6000604051905090565b600080fd5b600080fd5b600080fd5b600080fd5b6000601f19601f8301169050919050565b7f4e487b7100000000000000000000000000000000000000000000000000000000600052604160045260246000fd5b610a17826109ce565b810181811067ffffffffffffffff82111715610a3657610a356109df565b5b80604052505050565b6000610a496109b0565b9050610a558282610a0e565b919050565b600067ffffffffffffffff821115610a7557610a746109df565b5b610a7e826109ce565b9050602081019050919050565b82818337600083830152505050565b6000610aad610aa884610a5a565b610a3f565b905082815260208101848484011115610ac957610ac86109c9565b5b610ad4848285610a8b565b509392505050565b600082601f830112610af157610af06109c4565b5b8135610b01848260208601610a9a565b91505092915050565b6000819050919050565b610b1d81610b0a565b8114610b2857600080fd5b50565b600081359050610b3a81610b14565b92915050565b600080600060608486031215610b5957610b586109ba565b5b600084013567ffffffffffffffff811115610b7757610b766109bf565b5b610b8386828701610adc565b9350506020610b9486828701610b2b565b925050604084013567ffffffffffffffff811115610bb557610bb46109bf565b5b610bc186828701610adc565b9150509250925092565b600060208284031215610be157610be06109ba565b5b6000610bef84828501610b2b565b91505092915050565b610c0181610b0a565b82525050565b600081519050919050565b600082825260208201905092915050565b60005b83811015610c41578082015181840152602081019050610c26565b60008484015250505050565b6000610c5882610c07565b610c628185610c12565b9350610c72818560208601610c23565b610c7b816109ce565b840191505092915050565b600073ffffffffffffffffffffffffffffffffffffffff82169050919050565b6000610cb182610c86565b9050919050565b610cc181610ca6565b82525050565b600060a082019050610cdc6000830188610bf8565b8181036020830152610cee8187610c4d565b9050610cfd6040830186610bf8565b8181036060830152610d0f8185610c4d565b9050610d1e6080830184610cb8565b9695505050505050565b6000602082019050610d3d6000830184610bf8565b92915050565b6000602082019050610d586000830184610cb8565b92915050565b7f4e487b7100000000000000000000000000000000000000000000000000000000600052602260045260246000fd5b60006002820490506001821680610da557607f821691505b602082108103610db857610db7610d5e565b5b50919050565b60008190508160005260206000209050919050565b60006020601f8301049050919050565b600082821b905092915050565b600060088302610e207fffffffffffffffffffffffffffffffffffffffffffffffffffffffffffffffff82610de3565b610e2a8683610de3565b95508019841693508086168417925050509392505050565b6000819050919050565b6000610e67610e62610e5d84610b0a565b610e42565b610b0a565b9050919050565b6000819050919050565b610e8183610e4c565b610e95610e8d82610e6e565b848454610df0565b825550505050565b600090565b610eaa610e9d565b610eb5818484610e78565b505050565b5b81811015610ed957610ece600082610ea2565b600181019050610ebb565b5050565b601f821115610f1e57610eef81610dbe565b610ef884610dd3565b81016020851015610f07578190505b610f1b610f1385610dd3565b830182610eba565b50505b505050565b600082821c905092915050565b6000610f4160001984600802610f23565b1980831691505092915050565b6000610f5a8383610f30565b9150826002028217905092915050565b610f7382610c07565b67ffffffffffffffff811115610f8c57610f8b6109df565b5b610f968254610d8d565b610fa1828285610edd565b600060209050601f831160018114610fd45760008415610fc2578287015190505b610fcc8582610f4e565b865550611034565b601f198416610fe286610dbe565b60005b8281101561100a57848901518255600182019150602085019450602081019050610fe5565b868310156110275784890151611023601f891682610f30565b8355505b6001600288020188555050505b505050505050565b7f4e487b7100000000000000000000000000000000000000000000000000000000600052603260045260246000fd5b7f596f7520646f6e742068617665207065726d697373696f6e0000000000000000600082015250565b60006110a1601883610c12565b91506110ac8261106b565b602082019050919050565b600060208201905081810360008301526110d081611094565b9050919050565b7f4e487b7100000000000000000000000000000000000000000000000000000000600052601160045260246000fd5b600061111182610b0a565b915061111c83610b0a565b9250828203905081811115611134576111336110d7565b5b92915050565b60008154905061114981610d8d565b9050919050565b81810361115e575050611236565b6111678261113a565b67ffffffffffffffff8111156111805761117f6109df565b5b61118a8254610d8d565b611195828285610edd565b6000601f8311600181146111c457600084156111b2578287015490505b6111bc8582610f4e565b86555061122f565b601f1984166111d287610dbe565b96506111dd86610dbe565b60005b82811015611205578489015482556001820191506001850194506020810190506111e0565b86831015611222578489015461121e601f891682610f30565b8355505b6001600288020188555050505b5050505050505b565b7f4e487b7100000000000000000000000000000000000000000000000000000000600052603160045260246000fd5b7f696e76616c642070726963650000000000000000000000000000000000000000600082015250565b600061129d600c83610c12565b91506112a882611267565b602082019050919050565b600060208201905081810360008301526112cc81611290565b9050919050565b7f596f7520616c7265616479206f776e2074686973206974656d00000000000000600082015250565b6000611309601983610c12565b9150611314826112d3565b602082019050919050565b60006020820190508181036000830152611338816112fc565b9050919050565b7f4974656d20697320616c726561647920736f6c64000000000000000000000000600082015250565b6000611375601483610c12565b91506113808261133f565b602082019050919050565b600060208201905081810360008301526113a481611368565b9050919050565b60006113b682610b0a565b91506113c183610b0a565b92508282026113cf81610b0a565b915082820484148315176113e6576113e56110d7565b5b5092915050565b7f4e487b7100000000000000000000000000000000000000000000000000000000600052601260045260246000fd5b600061142782610b0a565b915061143283610b0a565b925082611442576114416113ed565b5b82820490509291505056fea2646970667358221220d623a879f91b9c16bea9e258ae0f3a70ef6c3710b4bbb4bed14326b4ac2bbc7b64736f6c634300081c0033",
  "linkReferences": {},
  "deployedLinkReferences": {}
}