{
  "_format": "hh-sol-artifact-1",
  "contractName": "NFTMart3",
  "sourceName": "contracts/NFTMart3.sol",
  "abi": [
    {
      "inputs": [
        {
          "internalType": "address",
          "name": "target",
          "type": "address"
        }
      ],
      "name": "AddressEmptyCode",
      "type": "error"
    },
    {
      "inputs": [
        {
          "internalType": "address",
          "name": "implementation",
          "type": "address"
        }
      ],
      "name": "ERC1967InvalidImplementation",
      "type": "error"
    },
    {
      "inputs": [],
      "name": "ERC1967NonPayable",
      "type": "error"
    },
    {
      "inputs": [],
      "name": "FailedCall",
      "type": "error"
    },
    {
      "inputs": [],
      "name": "InvalidInitialization",
      "type": "error"
    },
    {
      "inputs": [],
      "name": "NotInitializing",
      "type": "error"
    },
    {
      "inputs": [
        {
          "internalType": "address",
          "name": "owner",
          "type": "address"
        }
      ],
      "name": "OwnableInvalidOwner",
      "type": "error"
    },
    {
      "inputs": [
        {
          "internalType": "address",
          "name": "account",
          "type": "address"
        }
      ],
      "name": "OwnableUnauthorizedAccount",
      "type": "error"
    },
    {
      "inputs": [],
      "name": "UUPSUnauthorizedCallContext",
      "type": "error"
    },
    {
      "inputs": [
        {
          "internalType": "bytes32",
          "name": "slot",
          "type": "bytes32"
        }
      ],
      "name": "UUPSUnsupportedProxiableUUID",
      "type": "error"
    },
    {
      "anonymous": false,
      "inputs": [
        {
          "indexed": false,
          "internalType": "uint64",
          "name": "version",
          "type": "uint64"
        }
      ],
      "name": "Initialized",
      "type": "event"
    },
    {
      "anonymous": false,
      "inputs": [
        {
          "indexed": true,
          "internalType": "address",
          "name": "previousOwner",
          "type": "address"
        },
        {
          "indexed": true,
          "internalType": "address",
          "name": "newOwner",
          "type": "address"
        }
      ],
      "name": "OwnershipTransferred",
      "type": "event"
    },
    {
      "anonymous": false,
      "inputs": [
        {
          "indexed": true,
          "internalType": "address",
          "name": "implementation",
          "type": "address"
        }
      ],
      "name": "Upgraded",
      "type": "event"
    },
    {
      "inputs": [
        {
          "internalType": "string",
          "name": "name",
          "type": "string"
        },
        {
          "internalType": "uint256",
          "name": "price",
          "type": "uint256"
        },
        {
          "internalType": "string",
          "name": "image_url",
          "type": "string"
        },
        {
          "internalType": "string",
          "name": "details",
          "type": "string"
        },
        {
          "internalType": "enum NFTMart.Category",
          "name": "category",
          "type": "uint8"
        }
      ],
      "name": "AddItems",
      "outputs": [],
      "stateMutability": "nonpayable",
      "type": "function"
    },
    {
      "inputs": [],
      "name": "MyNfts",
      "outputs": [
        {
          "components": [
            {
              "internalType": "string",
              "name": "name",
              "type": "string"
            },
            {
              "internalType": "uint256",
              "name": "price",
              "type": "uint256"
            },
            {
              "internalType": "string",
              "name": "image",
              "type": "string"
            },
            {
              "internalType": "string",
              "name": "details",
              "type": "string"
            },
            {
              "internalType": "enum NFTMart.Category",
              "name": "category",
              "type": "uint8"
            },
            {
              "internalType": "address",
              "name": "owner",
              "type": "address"
            },
            {
              "internalType": "bool",
              "name": "isSold",
              "type": "bool"
            },
            {
              "internalType": "uint256",
              "name": "tokenId",
              "type": "uint256"
            }
          ],
          "internalType": "struct NFTMart.NFT[]",
          "name": "",
          "type": "tuple[]"
        },
        {
          "components": [
            {
              "internalType": "string",
              "name": "name",
              "type": "string"
            },
            {
              "internalType": "uint256",
              "name": "price",
              "type": "uint256"
            },
            {
              "internalType": "string",
              "name": "image",
              "type": "string"
            },
            {
              "internalType": "string",
              "name": "details",
              "type": "string"
            },
            {
              "internalType": "enum NFTMart.Category",
              "name": "category",
              "type": "uint8"
            },
            {
              "internalType": "address",
              "name": "owner",
              "type": "address"
            },
            {
              "internalType": "bool",
              "name": "isSold",
              "type": "bool"
            },
            {
              "internalType": "uint256",
              "name": "tokenId",
              "type": "uint256"
            }
          ],
          "internalType": "struct NFTMart.NFT[]",
          "name": "",
          "type": "tuple[]"
        }
      ],
      "stateMutability": "view",
      "type": "function"
    },
    {
      "inputs": [],
      "name": "NftList",
      "outputs": [
        {
          "components": [
            {
              "internalType": "string",
              "name": "name",
              "type": "string"
            },
            {
              "internalType": "uint256",
              "name": "price",
              "type": "uint256"
            },
            {
              "internalType": "string",
              "name": "image",
              "type": "string"
            },
            {
              "internalType": "string",
              "name": "details",
              "type": "string"
            },
            {
              "internalType": "enum NFTMart.Category",
              "name": "category",
              "type": "uint8"
            },
            {
              "internalType": "address",
              "name": "owner",
              "type": "address"
            },
            {
              "internalType": "bool",
              "name": "isSold",
              "type": "bool"
            },
            {
              "internalType": "uint256",
              "name": "tokenId",
              "type": "uint256"
            }
          ],
          "internalType": "struct NFTMart.NFT[]",
          "name": "",
          "type": "tuple[]"
        }
      ],
      "stateMutability": "view",
      "type": "function"
    },
    {
      "inputs": [
        {
          "internalType": "enum NFTMart.Category",
          "name": "category",
          "type": "uint8"
        }
      ],
      "name": "NftListByCategry",
      "outputs": [
        {
          "components": [
            {
              "internalType": "string",
              "name": "name",
              "type": "string"
            },
            {
              "internalType": "uint256",
              "name": "price",
              "type": "uint256"
            },
            {
              "internalType": "string",
              "name": "image",
              "type": "string"
            },
            {
              "internalType": "string",
              "name": "details",
              "type": "string"
            },
            {
              "internalType": "enum NFTMart.Category",
              "name": "category",
              "type": "uint8"
            },
            {
              "internalType": "address",
              "name": "owner",
              "type": "address"
            },
            {
              "internalType": "bool",
              "name": "isSold",
              "type": "bool"
            },
            {
              "internalType": "uint256",
              "name": "tokenId",
              "type": "uint256"
            }
          ],
          "internalType": "struct NFTMart.NFT[]",
          "name": "",
          "type": "tuple[]"
        }
      ],
      "stateMutability": "view",
      "type": "function"
    },
    {
      "inputs": [
        {
          "internalType": "address",
          "name": "_address",
          "type": "address"
        }
      ],
      "name": "SetNftAddress",
      "outputs": [],
      "stateMutability": "nonpayable",
      "type": "function"
    },
    {
      "inputs": [],
      "name": "UPGRADE_INTERFACE_VERSION",
      "outputs": [
        {
          "internalType": "string",
          "name": "",
          "type": "string"
        }
      ],
      "stateMutability": "view",
      "type": "function"
    },
    {
      "inputs": [
        {
          "internalType": "uint256",
          "name": "id",
          "type": "uint256"
        }
      ],
      "name": "buyItem",
      "outputs": [],
      "stateMutability": "payable",
      "type": "function"
    },
    {
      "inputs": [
        {
          "internalType": "uint256",
          "name": "id",
          "type": "uint256"
        }
      ],
      "name": "deleteItem",
      "outputs": [],
      "stateMutability": "nonpayable",
      "type": "function"
    },
    {
      "inputs": [],
      "name": "getContractBalance",
      "outputs": [
        {
          "internalType": "uint256",
          "name": "",
          "type": "uint256"
        }
      ],
      "stateMutability": "view",
      "type": "function"
    },
    {
      "inputs": [
        {
          "internalType": "address",
          "name": "user",
          "type": "address"
        }
      ],
      "name": "getUserBalance",
      "outputs": [
        {
          "internalType": "uint256",
          "name": "",
          "type": "uint256"
        }
      ],
      "stateMutability": "view",
      "type": "function"
    },
    {
      "inputs": [],
      "name": "initialize",
      "outputs": [],
      "stateMutability": "nonpayable",
      "type": "function"
    },
    {
      "inputs": [
        {
          "internalType": "address",
          "name": "",
          "type": "address"
        }
      ],
      "name": "myNftCount",
      "outputs": [
        {
          "internalType": "uint256",
          "name": "",
          "type": "uint256"
        }
      ],
      "stateMutability": "view",
      "type": "function"
    },
    {
      "inputs": [
        {
          "internalType": "uint256",
          "name": "",
          "type": "uint256"
        }
      ],
      "name": "nftList",
      "outputs": [
        {
          "internalType": "string",
          "name": "name",
          "type": "string"
        },
        {
          "internalType": "uint256",
          "name": "price",
          "type": "uint256"
        },
        {
          "internalType": "string",
          "name": "image",
          "type": "string"
        },
        {
          "internalType": "string",
          "name": "details",
          "type": "string"
        },
        {
          "internalType": "enum NFTMart.Category",
          "name": "category",
          "type": "uint8"
        },
        {
          "internalType": "address",
          "name": "owner",
          "type": "address"
        },
        {
          "internalType": "bool",
          "name": "isSold",
          "type": "bool"
        },
        {
          "internalType": "uint256",
          "name": "tokenId",
          "type": "uint256"
        }
      ],
      "stateMutability": "view",
      "type": "function"
    },
    {
      "inputs": [],
      "name": "nftListLength",
      "outputs": [
        {
          "internalType": "uint256",
          "name": "",
          "type": "uint256"
        }
      ],
      "stateMutability": "view",
      "type": "function"
    },
    {
      "inputs": [],
      "name": "owner",
      "outputs": [
        {
          "internalType": "address",
          "name": "",
          "type": "address"
        }
      ],
      "stateMutability": "view",
      "type": "function"
    },
    {
      "inputs": [],
      "name": "proxiableUUID",
      "outputs": [
        {
          "internalType": "bytes32",
          "name": "",
          "type": "bytes32"
        }
      ],
      "stateMutability": "view",
      "type": "function"
    },
    {
      "inputs": [],
      "name": "renounceOwnership",
      "outputs": [],
      "stateMutability": "nonpayable",
      "type": "function"
    },
    {
      "inputs": [
        {
          "internalType": "address",
          "name": "newOwner",
          "type": "address"
        }
      ],
      "name": "transferOwnership",
      "outputs": [],
      "stateMutability": "nonpayable",
      "type": "function"
    },
    {
      "inputs": [
        {
          "internalType": "address",
          "name": "newImplementation",
          "type": "address"
        },
        {
          "internalType": "bytes",
          "name": "data",
          "type": "bytes"
        }
      ],
      "name": "upgradeToAndCall",
      "outputs": [],
      "stateMutability": "payable",
      "type": "function"
    }
  ],
  "bytecode": "0x60a06040523073ffffffffffffffffffffffffffffffffffffffff1660809073ffffffffffffffffffffffffffffffffffffffff16815250348015604257600080fd5b5060805161412e61006c6000396000818161257c015281816125d1015261278c015261412e6000f3fe6080604052600436106101145760003560e01c8063715018a6116100a0578063ad3cb1cc11610064578063ad3cb1cc1461038a578063bd824e6c146103b5578063e7fb74c7146103de578063ec3199d6146103fa578063f2fde38b1461042357610114565b8063715018a6146102c257806375bea166146102d95780638129fc1c1461031d5780638da5cb5b146103345780639eb067f51461035f57610114565b80634f1ef286116100e75780634f1ef286146101ea57806352d1902d14610206578063654fc83314610231578063687a8ddd1461025a5780636f9fb98a1461029757610114565b8063059fe6001461011957806323c7fccd1461015657806326c9b7841461018157806347734892146101ad575b600080fd5b34801561012557600080fd5b50610140600480360381019061013b9190612f56565b61044c565b60405161014d9190612f9c565b60405180910390f35b34801561016257600080fd5b5061016b610464565b6040516101789190613277565b60405180910390f35b34801561018d57600080fd5b5061019661095f565b6040516101a4929190613299565b60405180910390f35b3480156101b957600080fd5b506101d460048036038101906101cf9190612f56565b61122b565b6040516101e19190612f9c565b60405180910390f35b61020460048036038101906101ff9190613405565b61124c565b005b34801561021257600080fd5b5061021b61126b565b604051610228919061347a565b60405180910390f35b34801561023d57600080fd5b50610258600480360381019061025391906134c1565b61129e565b005b34801561026657600080fd5b50610281600480360381019061027c9190613513565b611591565b60405161028e9190613277565b60405180910390f35b3480156102a357600080fd5b506102ac611a58565b6040516102b99190612f9c565b60405180910390f35b3480156102ce57600080fd5b506102d7611a60565b005b3480156102e557600080fd5b5061030060048036038101906102fb91906134c1565b611a74565b6040516103149897969594939291906135b7565b60405180910390f35b34801561032957600080fd5b50610332611c9e565b005b34801561034057600080fd5b50610349611e34565b604051610356919061364a565b60405180910390f35b34801561036b57600080fd5b50610374611e6c565b6040516103819190612f9c565b60405180910390f35b34801561039657600080fd5b5061039f611e79565b6040516103ac9190613665565b60405180910390f35b3480156103c157600080fd5b506103dc60048036038101906103d79190612f56565b611eb2565b005b6103f860048036038101906103f391906134c1565b611efd565b005b34801561040657600080fd5b50610421600480360381019061041c9190613728565b6121f7565b005b34801561042f57600080fd5b5061044a60048036038101906104459190612f56565b6124f4565b005b60026020528060005260406000206000915090505481565b60606000805b610472611e6c565b811015610550573373ffffffffffffffffffffffffffffffffffffffff16600182815481106104a4576104a36137f7565b5b906000526020600020906006020160040160019054906101000a900473ffffffffffffffffffffffffffffffffffffffff1673ffffffffffffffffffffffffffffffffffffffff1614801561052f5750600015156001828154811061050c5761050b6137f7565b5b906000526020600020906006020160040160159054906101000a900460ff161515145b1561054357818061053f90613855565b9250505b808060010191505061046a565b5060008167ffffffffffffffff81111561056d5761056c6132da565b5b6040519080825280602002602001820160405280156105a657816020015b610593612e18565b81526020019060019003908161058b5790505b5090506000805b6105b5611e6c565b811015610955573373ffffffffffffffffffffffffffffffffffffffff16600182815481106105e7576105e66137f7565b5b906000526020600020906006020160040160019054906101000a900473ffffffffffffffffffffffffffffffffffffffff1673ffffffffffffffffffffffffffffffffffffffff161480156106725750600015156001828154811061064f5761064e6137f7565b5b906000526020600020906006020160040160159054906101000a900460ff161515145b15610948576001818154811061068b5761068a6137f7565b5b9060005260206000209060060201604051806101000160405290816000820180546106b5906138cc565b80601f01602080910402602001604051908101604052809291908181526020018280546106e1906138cc565b801561072e5780601f106107035761010080835404028352916020019161072e565b820191906000526020600020905b81548152906001019060200180831161071157829003601f168201915b5050505050815260200160018201548152602001600282018054610751906138cc565b80601f016020809104026020016040519081016040528092919081815260200182805461077d906138cc565b80156107ca5780601f1061079f576101008083540402835291602001916107ca565b820191906000526020600020905b8154815290600101906020018083116107ad57829003601f168201915b505050505081526020016003820180546107e3906138cc565b80601f016020809104026020016040519081016040528092919081815260200182805461080f906138cc565b801561085c5780601f106108315761010080835404028352916020019161085c565b820191906000526020600020905b81548152906001019060200180831161083f57829003601f168201915b505050505081526020016004820160009054906101000a900460ff16600581111561088a57610889613082565b5b600581111561089c5761089b613082565b5b81526020016004820160019054906101000a900473ffffffffffffffffffffffffffffffffffffffff1673ffffffffffffffffffffffffffffffffffffffff1673ffffffffffffffffffffffffffffffffffffffff1681526020016004820160159054906101000a900460ff1615151515815260200160058201548152505083838151811061092e5761092d6137f7565b5b6020026020010181905250818061094490613855565b9250505b80806001019150506105ad565b5081935050505090565b60608060008060005b600180549050811015610a56573373ffffffffffffffffffffffffffffffffffffffff16600182815481106109a05761099f6137f7565b5b906000526020600020906006020160040160019054906101000a900473ffffffffffffffffffffffffffffffffffffffff1673ffffffffffffffffffffffffffffffffffffffff1603610a495782806109f890613855565b9350506001151560018281548110610a1357610a126137f7565b5b906000526020600020906006020160040160159054906101000a900460ff16151503610a48578180610a4490613855565b9250505b5b8080600101915050610968565b5060008267ffffffffffffffff811115610a7357610a726132da565b5b604051908082528060200260200182016040528015610aac57816020015b610a99612e18565b815260200190600190039081610a915790505b50905060008267ffffffffffffffff811115610acb57610aca6132da565b5b604051908082528060200260200182016040528015610b0457816020015b610af1612e18565b815260200190600190039081610ae95790505b50905060008060005b600180549050811015610e70573373ffffffffffffffffffffffffffffffffffffffff1660018281548110610b4557610b446137f7565b5b906000526020600020906006020160040160019054906101000a900473ffffffffffffffffffffffffffffffffffffffff1673ffffffffffffffffffffffffffffffffffffffff1603610e635760018181548110610ba657610ba56137f7565b5b906000526020600020906006020160405180610100016040529081600082018054610bd0906138cc565b80601f0160208091040260200160405190810160405280929190818152602001828054610bfc906138cc565b8015610c495780601f10610c1e57610100808354040283529160200191610c49565b820191906000526020600020905b815481529060010190602001808311610c2c57829003601f168201915b5050505050815260200160018201548152602001600282018054610c6c906138cc565b80601f0160208091040260200160405190810160405280929190818152602001828054610c98906138cc565b8015610ce55780601f10610cba57610100808354040283529160200191610ce5565b820191906000526020600020905b815481529060010190602001808311610cc857829003601f168201915b50505050508152602001600382018054610cfe906138cc565b80601f0160208091040260200160405190810160405280929190818152602001828054610d2a906138cc565b8015610d775780601f10610d4c57610100808354040283529160200191610d77565b820191906000526020600020905b815481529060010190602001808311610d5a57829003601f168201915b505050505081526020016004820160009054906101000a900460ff166005811115610da557610da4613082565b5b6005811115610db757610db6613082565b5b81526020016004820160019054906101000a900473ffffffffffffffffffffffffffffffffffffffff1673ffffffffffffffffffffffffffffffffffffffff1673ffffffffffffffffffffffffffffffffffffffff1681526020016004820160159054906101000a900460ff16151515158152602001600582015481525050858481518110610e4957610e486137f7565b5b60200260200101819052508280610e5f90613855565b9350505b8080600101915050610b0d565b5060005b60018054905081101561121a573373ffffffffffffffffffffffffffffffffffffffff1660018281548110610eac57610eab6137f7565b5b906000526020600020906006020160040160019054906101000a900473ffffffffffffffffffffffffffffffffffffffff1673ffffffffffffffffffffffffffffffffffffffff16148015610f3757506001151560018281548110610f1457610f136137f7565b5b906000526020600020906006020160040160159054906101000a900460ff161515145b1561120d5760018181548110610f5057610f4f6137f7565b5b906000526020600020906006020160405180610100016040529081600082018054610f7a906138cc565b80601f0160208091040260200160405190810160405280929190818152602001828054610fa6906138cc565b8015610ff35780601f10610fc857610100808354040283529160200191610ff3565b820191906000526020600020905b815481529060010190602001808311610fd657829003601f168201915b5050505050815260200160018201548152602001600282018054611016906138cc565b80601f0160208091040260200160405190810160405280929190818152602001828054611042906138cc565b801561108f5780601f106110645761010080835404028352916020019161108f565b820191906000526020600020905b81548152906001019060200180831161107257829003601f168201915b505050505081526020016003820180546110a8906138cc565b80601f01602080910402602001604051908101604052809291908181526020018280546110d4906138cc565b80156111215780601f106110f657610100808354040283529160200191611121565b820191906000526020600020905b81548152906001019060200180831161110457829003601f168201915b505050505081526020016004820160009054906101000a900460ff16600581111561114f5761114e613082565b5b600581111561116157611160613082565b5b81526020016004820160019054906101000a900473ffffffffffffffffffffffffffffffffffffffff1673ffffffffffffffffffffffffffffffffffffffff1673ffffffffffffffffffffffffffffffffffffffff1681526020016004820160159054906101000a900460ff161515151581526020016005820154815250508483815181106111f3576111f26137f7565b5b6020026020010181905250818061120990613855565b9250505b8080600101915050610e74565b508383975097505050505050509091565b60008173ffffffffffffffffffffffffffffffffffffffff16319050919050565b61125461257a565b61125d82612660565b611267828261266b565b5050565b600061127561278a565b7f360894a13ba1a3210667c828492db98dca3e2076cc3735a920a3ca505d382bbc60001b905090565b3373ffffffffffffffffffffffffffffffffffffffff16600182815481106112c9576112c86137f7565b5b906000526020600020906006020160040160019054906101000a900473ffffffffffffffffffffffffffffffffffffffff1673ffffffffffffffffffffffffffffffffffffffff1614611351576040517f08c379a000000000000000000000000000000000000000000000000000000000815260040161134890613949565b60405180910390fd5b600061135b611e6c565b90506001808261136b9190613969565b8154811061137c5761137b6137f7565b5b90600052602060002090600602016001838154811061139e5761139d6137f7565b5b9060005260206000209060060201600082018160000190816113c09190613b5f565b5060018201548160010155600282018160020190816113df9190613b5f565b50600382018160030190816113f49190613b5f565b506004820160009054906101000a900460ff168160040160006101000a81548160ff0219169083600581111561142d5761142c613082565b5b02179055506004820160019054906101000a900473ffffffffffffffffffffffffffffffffffffffff168160040160016101000a81548173ffffffffffffffffffffffffffffffffffffffff021916908373ffffffffffffffffffffffffffffffffffffffff1602179055506004820160159054906101000a900460ff168160040160156101000a81548160ff0219169083151502179055506005820154816005015590505060018054806114e5576114e4613c47565b5b60019003818190600052602060002090600602016000808201600061150a9190612e87565b60018201600090556002820160006115229190612e87565b6003820160006115329190612e87565b6004820160006101000a81549060ff02191690556004820160016101000a81549073ffffffffffffffffffffffffffffffffffffffff02191690556004820160156101000a81549060ff02191690556005820160009055505090555050565b6060600080600090505b600180549050811015611664578360058111156115bb576115ba613082565b5b600182815481106115cf576115ce6137f7565b5b906000526020600020906006020160040160009054906101000a900460ff166005811115611600576115ff613082565b5b148015611643575060001515600182815481106116205761161f6137f7565b5b906000526020600020906006020160040160159054906101000a900460ff161515145b1561165757818061165390613855565b9250505b808060010191505061159b565b5060008167ffffffffffffffff811115611681576116806132da565b5b6040519080825280602002602001820160405280156116ba57816020015b6116a7612e18565b81526020019060019003908161169f5790505b5090506000805b600180549050811015611a4c578560058111156116e1576116e0613082565b5b600182815481106116f5576116f46137f7565b5b906000526020600020906006020160040160009054906101000a900460ff16600581111561172657611725613082565b5b14801561176957506000151560018281548110611746576117456137f7565b5b906000526020600020906006020160040160159054906101000a900460ff161515145b15611a3f5760018181548110611782576117816137f7565b5b9060005260206000209060060201604051806101000160405290816000820180546117ac906138cc565b80601f01602080910402602001604051908101604052809291908181526020018280546117d8906138cc565b80156118255780601f106117fa57610100808354040283529160200191611825565b820191906000526020600020905b81548152906001019060200180831161180857829003601f168201915b5050505050815260200160018201548152602001600282018054611848906138cc565b80601f0160208091040260200160405190810160405280929190818152602001828054611874906138cc565b80156118c15780601f10611896576101008083540402835291602001916118c1565b820191906000526020600020905b8154815290600101906020018083116118a457829003601f168201915b505050505081526020016003820180546118da906138cc565b80601f0160208091040260200160405190810160405280929190818152602001828054611906906138cc565b80156119535780601f1061192857610100808354040283529160200191611953565b820191906000526020600020905b81548152906001019060200180831161193657829003601f168201915b505050505081526020016004820160009054906101000a900460ff16600581111561198157611980613082565b5b600581111561199357611992613082565b5b81526020016004820160019054906101000a900473ffffffffffffffffffffffffffffffffffffffff1673ffffffffffffffffffffffffffffffffffffffff1673ffffffffffffffffffffffffffffffffffffffff1681526020016004820160159054906101000a900460ff16151515158152602001600582015481525050838381518110611a2557611a246137f7565b5b60200260200101819052508180611a3b90613855565b9250505b80806001019150506116c1565b50819350505050919050565b600047905090565b611a68612811565b611a726000612898565b565b60018181548110611a8457600080fd5b9060005260206000209060060201600091509050806000018054611aa7906138cc565b80601f0160208091040260200160405190810160405280929190818152602001828054611ad3906138cc565b8015611b205780601f10611af557610100808354040283529160200191611b20565b820191906000526020600020905b815481529060010190602001808311611b0357829003601f168201915b505050505090806001015490806002018054611b3b906138cc565b80601f0160208091040260200160405190810160405280929190818152602001828054611b67906138cc565b8015611bb45780601f10611b8957610100808354040283529160200191611bb4565b820191906000526020600020905b815481529060010190602001808311611b9757829003601f168201915b505050505090806003018054611bc9906138cc565b80601f0160208091040260200160405190810160405280929190818152602001828054611bf5906138cc565b8015611c425780601f10611c1757610100808354040283529160200191611c42565b820191906000526020600020905b815481529060010190602001808311611c2557829003601f168201915b5050505050908060040160009054906101000a900460ff16908060040160019054906101000a900473ffffffffffffffffffffffffffffffffffffffff16908060040160159054906101000a900460ff16908060050154905088565b6000611ca861296f565b905060008160000160089054906101000a900460ff1615905060008260000160009054906101000a900467ffffffffffffffff1690506000808267ffffffffffffffff16148015611cf65750825b9050600060018367ffffffffffffffff16148015611d2b575060003073ffffffffffffffffffffffffffffffffffffffff163b145b905081158015611d39575080155b15611d70576040517ff92ee8a900000000000000000000000000000000000000000000000000000000815260040160405180910390fd5b60018560000160006101000a81548167ffffffffffffffff021916908367ffffffffffffffff1602179055508315611dc05760018560000160086101000a81548160ff0219169083151502179055505b611dc933612983565b611dd1612997565b8315611e2d5760008560000160086101000a81548160ff0219169083151502179055507fc7f505b2f371ae2175ee4913f4499e1f2633a7b5936321eed1cdaeb6115181d26001604051611e249190613cc5565b60405180910390a15b5050505050565b600080611e3f6129a1565b90508060000160009054906101000a900473ffffffffffffffffffffffffffffffffffffffff1691505090565b6000600180549050905090565b6040518060400160405280600581526020017f352e302e3000000000000000000000000000000000000000000000000000000081525081565b611eba612811565b806000806101000a81548173ffffffffffffffffffffffffffffffffffffffff021916908373ffffffffffffffffffffffffffffffffffffffff16021790555050565b600060018281548110611f1357611f126137f7565b5b9060005260206000209060060201905080600101543414611f69576040517f08c379a0000000000000000000000000000000000000000000000000000000008152600401611f6090613d2c565b60405180910390fd5b8060040160019054906101000a900473ffffffffffffffffffffffffffffffffffffffff1673ffffffffffffffffffffffffffffffffffffffff163373ffffffffffffffffffffffffffffffffffffffff1603611ffb576040517f08c379a0000000000000000000000000000000000000000000000000000000008152600401611ff290613d98565b60405180910390fd5b600015158160040160159054906101000a900460ff16151514612053576040517f08c379a000000000000000000000000000000000000000000000000000000000815260040161204a90613e04565b60405180910390fd5b60008160040160019054906101000a900473ffffffffffffffffffffffffffffffffffffffff1690508073ffffffffffffffffffffffffffffffffffffffff166108fc60646062346120a59190613e24565b6120af9190613e95565b9081150290604051600060405180830381858888f193505050501580156120da573d6000803e3d6000fd5b5060008054906101000a900473ffffffffffffffffffffffffffffffffffffffff1673ffffffffffffffffffffffffffffffffffffffff166323b872dd8360040160019054906101000a900473ffffffffffffffffffffffffffffffffffffffff163385600501546040518463ffffffff1660e01b815260040161216093929190613ec6565b600060405180830381600087803b15801561217a57600080fd5b505af115801561218e573d6000803e3d6000fd5b50505050338260040160016101000a81548173ffffffffffffffffffffffffffffffffffffffff021916908373ffffffffffffffffffffffffffffffffffffffff16021790555060018260040160156101000a81548160ff021916908315150217905550505050565b60008060009054906101000a900473ffffffffffffffffffffffffffffffffffffffff1673ffffffffffffffffffffffffffffffffffffffff166317d70f7c6040518163ffffffff1660e01b8152600401602060405180830381865afa158015612265573d6000803e3d6000fd5b505050506040513d601f19601f820116820180604052508101906122899190613f12565b905060016040518061010001604052808881526020018781526020018681526020018581526020018460058111156122c4576122c3613082565b5b81526020013373ffffffffffffffffffffffffffffffffffffffff16815260200160001515815260200183815250908060018154018082558091505060019003906000526020600020906006020160009091909190915060008201518160000190816123309190613f3f565b506020820151816001015560408201518160020190816123509190613f3f565b5060608201518160030190816123669190613f3f565b5060808201518160040160006101000a81548160ff0219169083600581111561239257612391613082565b5b021790555060a08201518160040160016101000a81548173ffffffffffffffffffffffffffffffffffffffff021916908373ffffffffffffffffffffffffffffffffffffffff16021790555060c08201518160040160156101000a81548160ff02191690831515021790555060e08201518160050155505060008054906101000a900473ffffffffffffffffffffffffffffffffffffffff1673ffffffffffffffffffffffffffffffffffffffff1663a06b4ca133866040518363ffffffff1660e01b8152600401612465929190614011565b600060405180830381600087803b15801561247f57600080fd5b505af1158015612493573d6000803e3d6000fd5b50505050600260003373ffffffffffffffffffffffffffffffffffffffff1673ffffffffffffffffffffffffffffffffffffffff16815260200190815260200160002060008154809291906124e790613855565b9190505550505050505050565b6124fc612811565b600073ffffffffffffffffffffffffffffffffffffffff168173ffffffffffffffffffffffffffffffffffffffff160361256e5760006040517f1e4fbdf7000000000000000000000000000000000000000000000000000000008152600401612565919061364a565b60405180910390fd5b61257781612898565b50565b7f000000000000000000000000000000000000000000000000000000000000000073ffffffffffffffffffffffffffffffffffffffff163073ffffffffffffffffffffffffffffffffffffffff16148061262757507f000000000000000000000000000000000000000000000000000000000000000073ffffffffffffffffffffffffffffffffffffffff1661260e6129c9565b73ffffffffffffffffffffffffffffffffffffffff1614155b1561265e576040517fe07c8dba00000000000000000000000000000000000000000000000000000000815260040160405180910390fd5b565b612668612811565b50565b8173ffffffffffffffffffffffffffffffffffffffff166352d1902d6040518163ffffffff1660e01b8152600401602060405180830381865afa9250505080156126d357506040513d601f19601f820116820180604052508101906126d0919061406d565b60015b61271457816040517f4c9c8ce300000000000000000000000000000000000000000000000000000000815260040161270b919061364a565b60405180910390fd5b7f360894a13ba1a3210667c828492db98dca3e2076cc3735a920a3ca505d382bbc60001b811461277b57806040517faa1d49a4000000000000000000000000000000000000000000000000000000008152600401612772919061347a565b60405180910390fd5b6127858383612a20565b505050565b7f000000000000000000000000000000000000000000000000000000000000000073ffffffffffffffffffffffffffffffffffffffff163073ffffffffffffffffffffffffffffffffffffffff161461280f576040517fe07c8dba00000000000000000000000000000000000000000000000000000000815260040160405180910390fd5b565b612819612a93565b73ffffffffffffffffffffffffffffffffffffffff16612837611e34565b73ffffffffffffffffffffffffffffffffffffffff16146128965761285a612a93565b6040517f118cdaa700000000000000000000000000000000000000000000000000000000815260040161288d919061364a565b60405180910390fd5b565b60006128a26129a1565b905060008160000160009054906101000a900473ffffffffffffffffffffffffffffffffffffffff169050828260000160006101000a81548173ffffffffffffffffffffffffffffffffffffffff021916908373ffffffffffffffffffffffffffffffffffffffff1602179055508273ffffffffffffffffffffffffffffffffffffffff168173ffffffffffffffffffffffffffffffffffffffff167f8be0079c531659141344cd1fd0a4f28419497f9722a3daafe3b4186f6b6457e060405160405180910390a3505050565b60008061297a612a9b565b90508091505090565b61298b612ac6565b61299481612b06565b50565b61299f612ac6565b565b60007f9016d09d72d40fdae2fd8ceac6b6234c7706214fd39c1cd1e609a0528c199300905090565b60006129f77f360894a13ba1a3210667c828492db98dca3e2076cc3735a920a3ca505d382bbc60001b612b8c565b60000160009054906101000a900473ffffffffffffffffffffffffffffffffffffffff16905090565b612a2982612b96565b8173ffffffffffffffffffffffffffffffffffffffff167fbc7cd75a20ee27fd9adebab32041f755214dbc6bffa90cc0225b39da2e5c2d3b60405160405180910390a2600081511115612a8657612a808282612c63565b50612a8f565b612a8e612ce7565b5b5050565b600033905090565b60007ff0c57e16840df040f15088dc2f81fe391c3923bec73e23a9662efc9c229c6a0060001b905090565b612ace612d24565b612b04576040517fd7e6bcf800000000000000000000000000000000000000000000000000000000815260040160405180910390fd5b565b612b0e612ac6565b600073ffffffffffffffffffffffffffffffffffffffff168173ffffffffffffffffffffffffffffffffffffffff1603612b805760006040517f1e4fbdf7000000000000000000000000000000000000000000000000000000008152600401612b77919061364a565b60405180910390fd5b612b8981612898565b50565b6000819050919050565b60008173ffffffffffffffffffffffffffffffffffffffff163b03612bf257806040517f4c9c8ce3000000000000000000000000000000000000000000000000000000008152600401612be9919061364a565b60405180910390fd5b80612c1f7f360894a13ba1a3210667c828492db98dca3e2076cc3735a920a3ca505d382bbc60001b612b8c565b60000160006101000a81548173ffffffffffffffffffffffffffffffffffffffff021916908373ffffffffffffffffffffffffffffffffffffffff16021790555050565b60606000808473ffffffffffffffffffffffffffffffffffffffff1684604051612c8d91906140e1565b600060405180830381855af49150503d8060008114612cc8576040519150601f19603f3d011682016040523d82523d6000602084013e612ccd565b606091505b5091509150612cdd858383612d44565b9250505092915050565b6000341115612d22576040517fb398979f00000000000000000000000000000000000000000000000000000000815260040160405180910390fd5b565b6000612d2e61296f565b60000160089054906101000a900460ff16905090565b606082612d5957612d5482612dd3565b612dcb565b60008251148015612d81575060008473ffffffffffffffffffffffffffffffffffffffff163b145b15612dc357836040517f9996b315000000000000000000000000000000000000000000000000000000008152600401612dba919061364a565b60405180910390fd5b819050612dcc565b5b9392505050565b600081511115612de65780518082602001fd5b6040517fd6bda27500000000000000000000000000000000000000000000000000000000815260040160405180910390fd5b6040518061010001604052806060815260200160008152602001606081526020016060815260200160006005811115612e5457612e53613082565b5b8152602001600073ffffffffffffffffffffffffffffffffffffffff168152602001600015158152602001600081525090565b508054612e93906138cc565b6000825580601f10612ea55750612ec4565b601f016020900490600052602060002090810190612ec39190612ec7565b5b50565b5b80821115612ee0576000816000905550600101612ec8565b5090565b6000604051905090565b600080fd5b600080fd5b600073ffffffffffffffffffffffffffffffffffffffff82169050919050565b6000612f2382612ef8565b9050919050565b612f3381612f18565b8114612f3e57600080fd5b50565b600081359050612f5081612f2a565b92915050565b600060208284031215612f6c57612f6b612eee565b5b6000612f7a84828501612f41565b91505092915050565b6000819050919050565b612f9681612f83565b82525050565b6000602082019050612fb16000830184612f8d565b92915050565b600081519050919050565b600082825260208201905092915050565b6000819050602082019050919050565b600081519050919050565b600082825260208201905092915050565b60005b8381101561301d578082015181840152602081019050613002565b60008484015250505050565b6000601f19601f8301169050919050565b600061304582612fe3565b61304f8185612fee565b935061305f818560208601612fff565b61306881613029565b840191505092915050565b61307c81612f83565b82525050565b7f4e487b7100000000000000000000000000000000000000000000000000000000600052602160045260246000fd5b600681106130c2576130c1613082565b5b50565b60008190506130d3826130b1565b919050565b60006130e3826130c5565b9050919050565b6130f3816130d8565b82525050565b61310281612f18565b82525050565b60008115159050919050565b61311d81613108565b82525050565b6000610100830160008301518482036000860152613141828261303a565b91505060208301516131566020860182613073565b506040830151848203604086015261316e828261303a565b91505060608301518482036060860152613188828261303a565b915050608083015161319d60808601826130ea565b5060a08301516131b060a08601826130f9565b5060c08301516131c360c0860182613114565b5060e08301516131d660e0860182613073565b508091505092915050565b60006131ed8383613123565b905092915050565b6000602082019050919050565b600061320d82612fb7565b6132178185612fc2565b93508360208202850161322985612fd3565b8060005b85811015613265578484038952815161324685826131e1565b9450613251836131f5565b925060208a0199505060018101905061322d565b50829750879550505050505092915050565b600060208201905081810360008301526132918184613202565b905092915050565b600060408201905081810360008301526132b38185613202565b905081810360208301526132c78184613202565b90509392505050565b600080fd5b600080fd5b7f4e487b7100000000000000000000000000000000000000000000000000000000600052604160045260246000fd5b61331282613029565b810181811067ffffffffffffffff82111715613331576133306132da565b5b80604052505050565b6000613344612ee4565b90506133508282613309565b919050565b600067ffffffffffffffff8211156133705761336f6132da565b5b61337982613029565b9050602081019050919050565b82818337600083830152505050565b60006133a86133a384613355565b61333a565b9050828152602081018484840111156133c4576133c36132d5565b5b6133cf848285613386565b509392505050565b600082601f8301126133ec576133eb6132d0565b5b81356133fc848260208601613395565b91505092915050565b6000806040838503121561341c5761341b612eee565b5b600061342a85828601612f41565b925050602083013567ffffffffffffffff81111561344b5761344a612ef3565b5b613457858286016133d7565b9150509250929050565b6000819050919050565b61347481613461565b82525050565b600060208201905061348f600083018461346b565b92915050565b61349e81612f83565b81146134a957600080fd5b50565b6000813590506134bb81613495565b92915050565b6000602082840312156134d7576134d6612eee565b5b60006134e5848285016134ac565b91505092915050565b600681106134fb57600080fd5b50565b60008135905061350d816134ee565b92915050565b60006020828403121561352957613528612eee565b5b6000613537848285016134fe565b91505092915050565b600082825260208201905092915050565b600061355c82612fe3565b6135668185613540565b9350613576818560208601612fff565b61357f81613029565b840191505092915050565b613593816130d8565b82525050565b6135a281612f18565b82525050565b6135b181613108565b82525050565b60006101008201905081810360008301526135d2818b613551565b90506135e1602083018a612f8d565b81810360408301526135f38189613551565b905081810360608301526136078188613551565b9050613616608083018761358a565b61362360a0830186613599565b61363060c08301856135a8565b61363d60e0830184612f8d565b9998505050505050505050565b600060208201905061365f6000830184613599565b92915050565b6000602082019050818103600083015261367f8184613551565b905092915050565b600067ffffffffffffffff8211156136a2576136a16132da565b5b6136ab82613029565b9050602081019050919050565b60006136cb6136c684613687565b61333a565b9050828152602081018484840111156136e7576136e66132d5565b5b6136f2848285613386565b509392505050565b600082601f83011261370f5761370e6132d0565b5b813561371f8482602086016136b8565b91505092915050565b600080600080600060a0868803121561374457613743612eee565b5b600086013567ffffffffffffffff81111561376257613761612ef3565b5b61376e888289016136fa565b955050602061377f888289016134ac565b945050604086013567ffffffffffffffff8111156137a05761379f612ef3565b5b6137ac888289016136fa565b935050606086013567ffffffffffffffff8111156137cd576137cc612ef3565b5b6137d9888289016136fa565b92505060806137ea888289016134fe565b9150509295509295909350565b7f4e487b7100000000000000000000000000000000000000000000000000000000600052603260045260246000fd5b7f4e487b7100000000000000000000000000000000000000000000000000000000600052601160045260246000fd5b600061386082612f83565b91507fffffffffffffffffffffffffffffffffffffffffffffffffffffffffffffffff820361389257613891613826565b5b600182019050919050565b7f4e487b7100000000000000000000000000000000000000000000000000000000600052602260045260246000fd5b600060028204905060018216806138e457607f821691505b6020821081036138f7576138f661389d565b5b50919050565b7f596f7520646f6e742068617665207065726d697373696f6e0000000000000000600082015250565b6000613933601883613540565b915061393e826138fd565b602082019050919050565b6000602082019050818103600083015261396281613926565b9050919050565b600061397482612f83565b915061397f83612f83565b925082820390508181111561399757613996613826565b5b92915050565b6000815490506139ac816138cc565b9050919050565b60008190508160005260206000209050919050565b60006020601f8301049050919050565b600082821b905092915050565b600060088302613a157fffffffffffffffffffffffffffffffffffffffffffffffffffffffffffffffff826139d8565b613a1f86836139d8565b95508019841693508086168417925050509392505050565b6000819050919050565b6000613a5c613a57613a5284612f83565b613a37565b612f83565b9050919050565b6000819050919050565b613a7683613a41565b613a8a613a8282613a63565b8484546139e5565b825550505050565b600090565b613a9f613a92565b613aaa818484613a6d565b505050565b5b81811015613ace57613ac3600082613a97565b600181019050613ab0565b5050565b601f821115613b1357613ae4816139b3565b613aed846139c8565b81016020851015613afc578190505b613b10613b08856139c8565b830182613aaf565b50505b505050565b600082821c905092915050565b6000613b3660001984600802613b18565b1980831691505092915050565b6000613b4f8383613b25565b9150826002028217905092915050565b818103613b6d575050613c45565b613b768261399d565b67ffffffffffffffff811115613b8f57613b8e6132da565b5b613b9982546138cc565b613ba4828285613ad2565b6000601f831160018114613bd35760008415613bc1578287015490505b613bcb8582613b43565b865550613c3e565b601f198416613be1876139b3565b9650613bec866139b3565b60005b82811015613c1457848901548255600182019150600185019450602081019050613bef565b86831015613c315784890154613c2d601f891682613b25565b8355505b6001600288020188555050505b5050505050505b565b7f4e487b7100000000000000000000000000000000000000000000000000000000600052603160045260246000fd5b6000819050919050565b600067ffffffffffffffff82169050919050565b6000613caf613caa613ca584613c76565b613a37565b613c80565b9050919050565b613cbf81613c94565b82525050565b6000602082019050613cda6000830184613cb6565b92915050565b7f696e76616c642070726963650000000000000000000000000000000000000000600082015250565b6000613d16600c83613540565b9150613d2182613ce0565b602082019050919050565b60006020820190508181036000830152613d4581613d09565b9050919050565b7f596f7520616c7265616479206f776e2074686973206974656d00000000000000600082015250565b6000613d82601983613540565b9150613d8d82613d4c565b602082019050919050565b60006020820190508181036000830152613db181613d75565b9050919050565b7f4974656d20697320616c726561647920736f6c64000000000000000000000000600082015250565b6000613dee601483613540565b9150613df982613db8565b602082019050919050565b60006020820190508181036000830152613e1d81613de1565b9050919050565b6000613e2f82612f83565b9150613e3a83612f83565b9250828202613e4881612f83565b91508282048414831517613e5f57613e5e613826565b5b5092915050565b7f4e487b7100000000000000000000000000000000000000000000000000000000600052601260045260246000fd5b6000613ea082612f83565b9150613eab83612f83565b925082613ebb57613eba613e66565b5b828204905092915050565b6000606082019050613edb6000830186613599565b613ee86020830185613599565b613ef56040830184612f8d565b949350505050565b600081519050613f0c81613495565b92915050565b600060208284031215613f2857613f27612eee565b5b6000613f3684828501613efd565b91505092915050565b613f4882612fe3565b67ffffffffffffffff811115613f6157613f606132da565b5b613f6b82546138cc565b613f76828285613ad2565b600060209050601f831160018114613fa95760008415613f97578287015190505b613fa18582613b43565b865550614009565b601f198416613fb7866139b3565b60005b82811015613fdf57848901518255600182019150602085019450602081019050613fba565b86831015613ffc5784890151613ff8601f891682613b25565b8355505b6001600288020188555050505b505050505050565b60006040820190506140266000830185613599565b81810360208301526140388184613551565b90509392505050565b61404a81613461565b811461405557600080fd5b50565b60008151905061406781614041565b92915050565b60006020828403121561408357614082612eee565b5b600061409184828501614058565b91505092915050565b600081519050919050565b600081905092915050565b60006140bb8261409a565b6140c581856140a5565b93506140d5818560208601612fff565b80840191505092915050565b60006140ed82846140b0565b91508190509291505056fea2646970667358221220db06fbde7a027201c7134a7c3d9956c5eebf99ba6ad77d59fc539d30294b0bb264736f6c634300081c0033",
  "linkReferences": {},
  "deployedLinkReferences": {}
}