{
  "_format": "hh-sol-artifact-1",
  "contractName": "MyNFT",
  "sourceName": "contracts/NFTMart.sol",
  "abi": [
    {
      "inputs": [
        {
          "internalType": "address",
          "name": "target",
          "type": "address"
        }
      ],
      "name": "AddressEmptyCode",
      "type": "error"
    },
    {
      "inputs": [
        {
          "internalType": "address",
          "name": "implementation",
          "type": "address"
        }
      ],
      "name": "ERC1967InvalidImplementation",
      "type": "error"
    },
    {
      "inputs": [],
      "name": "ERC1967NonPayable",
      "type": "error"
    },
    {
      "inputs": [
        {
          "internalType": "address",
          "name": "sender",
          "type": "address"
        },
        {
          "internalType": "uint256",
          "name": "tokenId",
          "type": "uint256"
        },
        {
          "internalType": "address",
          "name": "owner",
          "type": "address"
        }
      ],
      "name": "ERC721IncorrectOwner",
      "type": "error"
    },
    {
      "inputs": [
        {
          "internalType": "address",
          "name": "operator",
          "type": "address"
        },
        {
          "internalType": "uint256",
          "name": "tokenId",
          "type": "uint256"
        }
      ],
      "name": "ERC721InsufficientApproval",
      "type": "error"
    },
    {
      "inputs": [
        {
          "internalType": "address",
          "name": "approver",
          "type": "address"
        }
      ],
      "name": "ERC721InvalidApprover",
      "type": "error"
    },
    {
      "inputs": [
        {
          "internalType": "address",
          "name": "operator",
          "type": "address"
        }
      ],
      "name": "ERC721InvalidOperator",
      "type": "error"
    },
    {
      "inputs": [
        {
          "internalType": "address",
          "name": "owner",
          "type": "address"
        }
      ],
      "name": "ERC721InvalidOwner",
      "type": "error"
    },
    {
      "inputs": [
        {
          "internalType": "address",
          "name": "receiver",
          "type": "address"
        }
      ],
      "name": "ERC721InvalidReceiver",
      "type": "error"
    },
    {
      "inputs": [
        {
          "internalType": "address",
          "name": "sender",
          "type": "address"
        }
      ],
      "name": "ERC721InvalidSender",
      "type": "error"
    },
    {
      "inputs": [
        {
          "internalType": "uint256",
          "name": "tokenId",
          "type": "uint256"
        }
      ],
      "name": "ERC721NonexistentToken",
      "type": "error"
    },
    {
      "inputs": [],
      "name": "FailedCall",
      "type": "error"
    },
    {
      "inputs": [],
      "name": "InvalidInitialization",
      "type": "error"
    },
    {
      "inputs": [],
      "name": "NotInitializing",
      "type": "error"
    },
    {
      "inputs": [
        {
          "internalType": "address",
          "name": "owner",
          "type": "address"
        }
      ],
      "name": "OwnableInvalidOwner",
      "type": "error"
    },
    {
      "inputs": [
        {
          "internalType": "address",
          "name": "account",
          "type": "address"
        }
      ],
      "name": "OwnableUnauthorizedAccount",
      "type": "error"
    },
    {
      "inputs": [],
      "name": "UUPSUnauthorizedCallContext",
      "type": "error"
    },
    {
      "inputs": [
        {
          "internalType": "bytes32",
          "name": "slot",
          "type": "bytes32"
        }
      ],
      "name": "UUPSUnsupportedProxiableUUID",
      "type": "error"
    },
    {
      "anonymous": false,
      "inputs": [
        {
          "indexed": true,
          "internalType": "address",
          "name": "owner",
          "type": "address"
        },
        {
          "indexed": true,
          "internalType": "address",
          "name": "approved",
          "type": "address"
        },
        {
          "indexed": true,
          "internalType": "uint256",
          "name": "tokenId",
          "type": "uint256"
        }
      ],
      "name": "Approval",
      "type": "event"
    },
    {
      "anonymous": false,
      "inputs": [
        {
          "indexed": true,
          "internalType": "address",
          "name": "owner",
          "type": "address"
        },
        {
          "indexed": true,
          "internalType": "address",
          "name": "operator",
          "type": "address"
        },
        {
          "indexed": false,
          "internalType": "bool",
          "name": "approved",
          "type": "bool"
        }
      ],
      "name": "ApprovalForAll",
      "type": "event"
    },
    {
      "anonymous": false,
      "inputs": [
        {
          "indexed": false,
          "internalType": "uint256",
          "name": "_fromTokenId",
          "type": "uint256"
        },
        {
          "indexed": false,
          "internalType": "uint256",
          "name": "_toTokenId",
          "type": "uint256"
        }
      ],
      "name": "BatchMetadataUpdate",
      "type": "event"
    },
    {
      "anonymous": false,
      "inputs": [
        {
          "indexed": false,
          "internalType": "uint64",
          "name": "version",
          "type": "uint64"
        }
      ],
      "name": "Initialized",
      "type": "event"
    },
    {
      "anonymous": false,
      "inputs": [
        {
          "indexed": false,
          "internalType": "uint256",
          "name": "_tokenId",
          "type": "uint256"
        }
      ],
      "name": "MetadataUpdate",
      "type": "event"
    },
    {
      "anonymous": false,
      "inputs": [
        {
          "indexed": true,
          "internalType": "address",
          "name": "previousOwner",
          "type": "address"
        },
        {
          "indexed": true,
          "internalType": "address",
          "name": "newOwner",
          "type": "address"
        }
      ],
      "name": "OwnershipTransferred",
      "type": "event"
    },
    {
      "anonymous": false,
      "inputs": [
        {
          "indexed": true,
          "internalType": "address",
          "name": "from",
          "type": "address"
        },
        {
          "indexed": true,
          "internalType": "address",
          "name": "to",
          "type": "address"
        },
        {
          "indexed": true,
          "internalType": "uint256",
          "name": "tokenId",
          "type": "uint256"
        }
      ],
      "name": "Transfer",
      "type": "event"
    },
    {
      "anonymous": false,
      "inputs": [
        {
          "indexed": true,
          "internalType": "address",
          "name": "implementation",
          "type": "address"
        }
      ],
      "name": "Upgraded",
      "type": "event"
    },
    {
      "inputs": [
        {
          "internalType": "address",
          "name": "user",
          "type": "address"
        },
        {
          "internalType": "string",
          "name": "URI",
          "type": "string"
        }
      ],
      "name": "MintNFT",
      "outputs": [],
      "stateMutability": "nonpayable",
      "type": "function"
    },
    {
      "inputs": [],
      "name": "UPGRADE_INTERFACE_VERSION",
      "outputs": [
        {
          "internalType": "string",
          "name": "",
          "type": "string"
        }
      ],
      "stateMutability": "view",
      "type": "function"
    },
    {
      "inputs": [
        {
          "internalType": "address",
          "name": "to",
          "type": "address"
        },
        {
          "internalType": "uint256",
          "name": "tokenId",
          "type": "uint256"
        }
      ],
      "name": "approve",
      "outputs": [],
      "stateMutability": "nonpayable",
      "type": "function"
    },
    {
      "inputs": [
        {
          "internalType": "address",
          "name": "owner",
          "type": "address"
        }
      ],
      "name": "balanceOf",
      "outputs": [
        {
          "internalType": "uint256",
          "name": "",
          "type": "uint256"
        }
      ],
      "stateMutability": "view",
      "type": "function"
    },
    {
      "inputs": [
        {
          "internalType": "uint256",
          "name": "tokenId",
          "type": "uint256"
        }
      ],
      "name": "getApproved",
      "outputs": [
        {
          "internalType": "address",
          "name": "",
          "type": "address"
        }
      ],
      "stateMutability": "view",
      "type": "function"
    },
    {
      "inputs": [],
      "name": "initialize",
      "outputs": [],
      "stateMutability": "nonpayable",
      "type": "function"
    },
    {
      "inputs": [
        {
          "internalType": "address",
          "name": "owner",
          "type": "address"
        },
        {
          "internalType": "address",
          "name": "operator",
          "type": "address"
        }
      ],
      "name": "isApprovedForAll",
      "outputs": [
        {
          "internalType": "bool",
          "name": "",
          "type": "bool"
        }
      ],
      "stateMutability": "view",
      "type": "function"
    },
    {
      "inputs": [],
      "name": "name",
      "outputs": [
        {
          "internalType": "string",
          "name": "",
          "type": "string"
        }
      ],
      "stateMutability": "view",
      "type": "function"
    },
    {
      "inputs": [],
      "name": "owner",
      "outputs": [
        {
          "internalType": "address",
          "name": "",
          "type": "address"
        }
      ],
      "stateMutability": "view",
      "type": "function"
    },
    {
      "inputs": [
        {
          "internalType": "uint256",
          "name": "tokenId",
          "type": "uint256"
        }
      ],
      "name": "ownerOf",
      "outputs": [
        {
          "internalType": "address",
          "name": "",
          "type": "address"
        }
      ],
      "stateMutability": "view",
      "type": "function"
    },
    {
      "inputs": [],
      "name": "proxiableUUID",
      "outputs": [
        {
          "internalType": "bytes32",
          "name": "",
          "type": "bytes32"
        }
      ],
      "stateMutability": "view",
      "type": "function"
    },
    {
      "inputs": [],
      "name": "renounceOwnership",
      "outputs": [],
      "stateMutability": "nonpayable",
      "type": "function"
    },
    {
      "inputs": [
        {
          "internalType": "address",
          "name": "from",
          "type": "address"
        },
        {
          "internalType": "address",
          "name": "to",
          "type": "address"
        },
        {
          "internalType": "uint256",
          "name": "tokenId",
          "type": "uint256"
        }
      ],
      "name": "safeTransferFrom",
      "outputs": [],
      "stateMutability": "nonpayable",
      "type": "function"
    },
    {
      "inputs": [
        {
          "internalType": "address",
          "name": "from",
          "type": "address"
        },
        {
          "internalType": "address",
          "name": "to",
          "type": "address"
        },
        {
          "internalType": "uint256",
          "name": "tokenId",
          "type": "uint256"
        },
        {
          "internalType": "bytes",
          "name": "data",
          "type": "bytes"
        }
      ],
      "name": "safeTransferFrom",
      "outputs": [],
      "stateMutability": "nonpayable",
      "type": "function"
    },
    {
      "inputs": [
        {
          "internalType": "address",
          "name": "operator",
          "type": "address"
        },
        {
          "internalType": "bool",
          "name": "approved",
          "type": "bool"
        }
      ],
      "name": "setApprovalForAll",
      "outputs": [],
      "stateMutability": "nonpayable",
      "type": "function"
    },
    {
      "inputs": [
        {
          "internalType": "bytes4",
          "name": "interfaceId",
          "type": "bytes4"
        }
      ],
      "name": "supportsInterface",
      "outputs": [
        {
          "internalType": "bool",
          "name": "",
          "type": "bool"
        }
      ],
      "stateMutability": "view",
      "type": "function"
    },
    {
      "inputs": [],
      "name": "symbol",
      "outputs": [
        {
          "internalType": "string",
          "name": "",
          "type": "string"
        }
      ],
      "stateMutability": "view",
      "type": "function"
    },
    {
      "inputs": [],
      "name": "tokenId",
      "outputs": [
        {
          "internalType": "uint256",
          "name": "",
          "type": "uint256"
        }
      ],
      "stateMutability": "view",
      "type": "function"
    },
    {
      "inputs": [
        {
          "internalType": "uint256",
          "name": "tokenId",
          "type": "uint256"
        }
      ],
      "name": "tokenURI",
      "outputs": [
        {
          "internalType": "string",
          "name": "",
          "type": "string"
        }
      ],
      "stateMutability": "view",
      "type": "function"
    },
    {
      "inputs": [
        {
          "internalType": "address",
          "name": "from",
          "type": "address"
        },
        {
          "internalType": "address",
          "name": "to",
          "type": "address"
        },
        {
          "internalType": "uint256",
          "name": "tokenId",
          "type": "uint256"
        }
      ],
      "name": "transferFrom",
      "outputs": [],
      "stateMutability": "nonpayable",
      "type": "function"
    },
    {
      "inputs": [
        {
          "internalType": "address",
          "name": "newOwner",
          "type": "address"
        }
      ],
      "name": "transferOwnership",
      "outputs": [],
      "stateMutability": "nonpayable",
      "type": "function"
    },
    {
      "inputs": [
        {
          "internalType": "address",
          "name": "newImplementation",
          "type": "address"
        },
        {
          "internalType": "bytes",
          "name": "data",
          "type": "bytes"
        }
      ],
      "name": "upgradeToAndCall",
      "outputs": [],
      "stateMutability": "payable",
      "type": "function"
    }
  ],
  "bytecode": "0x60a06040523073ffffffffffffffffffffffffffffffffffffffff1660809073ffffffffffffffffffffffffffffffffffffffff16815250348015604257600080fd5b5060805161351a61006c600039600081816112c30152818161131801526114d3015261351a6000f3fe6080604052600436106101355760003560e01c8063715018a6116100ab578063a22cb4651161006f578063a22cb465146103f3578063ad3cb1cc1461041c578063b88d4fde14610447578063c87b56dd14610470578063e985e9c5146104ad578063f2fde38b146104ea57610135565b8063715018a6146103465780638129fc1c1461035d5780638da5cb5b1461037457806395d89b411461039f578063a06b4ca1146103ca57610135565b806323b872dd116100fd57806323b872dd1461023357806342842e0e1461025c5780634f1ef2861461028557806352d1902d146102a15780636352211e146102cc57806370a082311461030957610135565b806301ffc9a71461013a57806306fdde0314610177578063081812fc146101a2578063095ea7b3146101df57806317d70f7c14610208575b600080fd5b34801561014657600080fd5b50610161600480360381019061015c91906127cc565b610513565b60405161016e9190612814565b60405180910390f35b34801561018357600080fd5b5061018c610574565b60405161019991906128bf565b60405180910390f35b3480156101ae57600080fd5b506101c960048036038101906101c49190612917565b610615565b6040516101d69190612985565b60405180910390f35b3480156101eb57600080fd5b50610206600480360381019061020191906129cc565b610631565b005b34801561021457600080fd5b5061021d610647565b60405161022a9190612a1b565b60405180910390f35b34801561023f57600080fd5b5061025a60048036038101906102559190612a36565b61064d565b005b34801561026857600080fd5b50610283600480360381019061027e9190612a36565b61074f565b005b61029f600480360381019061029a9190612bbe565b61076f565b005b3480156102ad57600080fd5b506102b661078e565b6040516102c39190612c33565b60405180910390f35b3480156102d857600080fd5b506102f360048036038101906102ee9190612917565b6107c1565b6040516103009190612985565b60405180910390f35b34801561031557600080fd5b50610330600480360381019061032b9190612c4e565b6107d3565b60405161033d9190612a1b565b60405180910390f35b34801561035257600080fd5b5061035b61089c565b005b34801561036957600080fd5b506103726108b0565b005b34801561038057600080fd5b50610389610ac9565b6040516103969190612985565b60405180910390f35b3480156103ab57600080fd5b506103b4610b01565b6040516103c191906128bf565b60405180910390f35b3480156103d657600080fd5b506103f160048036038101906103ec9190612d1c565b610ba2565b005b3480156103ff57600080fd5b5061041a60048036038101906104159190612da4565b610bdd565b005b34801561042857600080fd5b50610431610bf3565b60405161043e91906128bf565b60405180910390f35b34801561045357600080fd5b5061046e60048036038101906104699190612de4565b610c2c565b005b34801561047c57600080fd5b5061049760048036038101906104929190612917565b610c51565b6040516104a491906128bf565b60405180910390f35b3480156104b957600080fd5b506104d460048036038101906104cf9190612e67565b610d75565b6040516104e19190612814565b60405180910390f35b3480156104f657600080fd5b50610511600480360381019061050c9190612c4e565b610e17565b005b6000634906490660e01b7bffffffffffffffffffffffffffffffffffffffffffffffffffffffff1916827bffffffffffffffffffffffffffffffffffffffffffffffffffffffff1916148061056d575061056c82610e9d565b5b9050919050565b60606000610580610f7f565b905080600001805461059190612ed6565b80601f01602080910402602001604051908101604052809291908181526020018280546105bd90612ed6565b801561060a5780601f106105df5761010080835404028352916020019161060a565b820191906000526020600020905b8154815290600101906020018083116105ed57829003601f168201915b505050505091505090565b600061062082610fa7565b5061062a8261102f565b9050919050565b610643828261063e61107a565b611082565b5050565b60005481565b600073ffffffffffffffffffffffffffffffffffffffff168273ffffffffffffffffffffffffffffffffffffffff16036106bf5760006040517f64a0ae920000000000000000000000000000000000000000000000000000000081526004016106b69190612985565b60405180910390fd5b60006106d383836106ce61107a565b611094565b90508373ffffffffffffffffffffffffffffffffffffffff168173ffffffffffffffffffffffffffffffffffffffff1614610749578382826040517f64283d7b00000000000000000000000000000000000000000000000000000000815260040161074093929190612f07565b60405180910390fd5b50505050565b61076a83838360405180602001604052806000815250610c2c565b505050565b6107776112c1565b610780826113a7565b61078a82826113b2565b5050565b60006107986114d1565b7f360894a13ba1a3210667c828492db98dca3e2076cc3735a920a3ca505d382bbc60001b905090565b60006107cc82610fa7565b9050919050565b6000806107de610f7f565b9050600073ffffffffffffffffffffffffffffffffffffffff168373ffffffffffffffffffffffffffffffffffffffff16036108525760006040517f89c62b640000000000000000000000000000000000000000000000000000000081526004016108499190612985565b60405180910390fd5b8060030160008473ffffffffffffffffffffffffffffffffffffffff1673ffffffffffffffffffffffffffffffffffffffff16815260200190815260200160002054915050919050565b6108a4611558565b6108ae60006115df565b565b60006108ba6116b6565b905060008160000160089054906101000a900460ff1615905060008260000160009054906101000a900467ffffffffffffffff1690506000808267ffffffffffffffff161480156109085750825b9050600060018367ffffffffffffffff1614801561093d575060003073ffffffffffffffffffffffffffffffffffffffff163b145b90508115801561094b575080155b15610982576040517ff92ee8a900000000000000000000000000000000000000000000000000000000815260040160405180910390fd5b60018560000160006101000a81548167ffffffffffffffff021916908367ffffffffffffffff16021790555083156109d25760018560000160086101000a81548160ff0219169083151502179055505b60008081905550610a4d6040518060400160405280600581526020017f4d794e46540000000000000000000000000000000000000000000000000000008152506040518060400160405280600481526020017f4d4e4654000000000000000000000000000000000000000000000000000000008152506116ca565b610a556116e0565b610a5e336116ea565b610a666116fe565b8315610ac25760008560000160086101000a81548160ff0219169083151502179055507fc7f505b2f371ae2175ee4913f4499e1f2633a7b5936321eed1cdaeb6115181d26001604051610ab99190612f97565b60405180910390a15b5050505050565b600080610ad4611708565b90508060000160009054906101000a900473ffffffffffffffffffffffffffffffffffffffff1691505090565b60606000610b0d610f7f565b9050806001018054610b1e90612ed6565b80601f0160208091040260200160405190810160405280929190818152602001828054610b4a90612ed6565b8015610b975780601f10610b6c57610100808354040283529160200191610b97565b820191906000526020600020905b815481529060010190602001808311610b7a57829003601f168201915b505050505091505090565b610baa611558565b610bb682600054611730565b610bc26000548261174e565b600080815480929190610bd490612fe1565b91905055505050565b610bef610be861107a565b83836117b9565b5050565b6040518060400160405280600581526020017f352e302e3000000000000000000000000000000000000000000000000000000081525081565b610c3784848461064d565b610c4b610c4261107a565b85858585611937565b50505050565b60606000610c5d611ae8565b9050610c6883610fa7565b5060008160000160008581526020019081526020016000208054610c8b90612ed6565b80601f0160208091040260200160405190810160405280929190818152602001828054610cb790612ed6565b8015610d045780601f10610cd957610100808354040283529160200191610d04565b820191906000526020600020905b815481529060010190602001808311610ce757829003601f168201915b505050505090506000610d15611b10565b90506000815103610d2b57819350505050610d70565b600082511115610d61578082604051602001610d48929190613065565b6040516020818303038152906040529350505050610d70565b610d6a85611b27565b93505050505b919050565b600080610d80610f7f565b90508060050160008573ffffffffffffffffffffffffffffffffffffffff1673ffffffffffffffffffffffffffffffffffffffff16815260200190815260200160002060008473ffffffffffffffffffffffffffffffffffffffff1673ffffffffffffffffffffffffffffffffffffffff16815260200190815260200160002060009054906101000a900460ff1691505092915050565b610e1f611558565b600073ffffffffffffffffffffffffffffffffffffffff168173ffffffffffffffffffffffffffffffffffffffff1603610e915760006040517f1e4fbdf7000000000000000000000000000000000000000000000000000000008152600401610e889190612985565b60405180910390fd5b610e9a816115df565b50565b60007f80ac58cd000000000000000000000000000000000000000000000000000000007bffffffffffffffffffffffffffffffffffffffffffffffffffffffff1916827bffffffffffffffffffffffffffffffffffffffffffffffffffffffff19161480610f6857507f5b5e139f000000000000000000000000000000000000000000000000000000007bffffffffffffffffffffffffffffffffffffffffffffffffffffffff1916827bffffffffffffffffffffffffffffffffffffffffffffffffffffffff1916145b80610f785750610f7782611b90565b5b9050919050565b60007f80bb2b638cc20bc4d0a60d66940f3ab4a00c1d7b313497ca82fb0b4ab0079300905090565b600080610fb383611bfa565b9050600073ffffffffffffffffffffffffffffffffffffffff168173ffffffffffffffffffffffffffffffffffffffff160361102657826040517f7e27328900000000000000000000000000000000000000000000000000000000815260040161101d9190612a1b565b60405180910390fd5b80915050919050565b60008061103a610f7f565b905080600401600084815260200190815260200160002060009054906101000a900473ffffffffffffffffffffffffffffffffffffffff16915050919050565b600033905090565b61108f8383836001611c45565b505050565b60008061109f610f7f565b905060006110ac85611bfa565b9050600073ffffffffffffffffffffffffffffffffffffffff168473ffffffffffffffffffffffffffffffffffffffff16146110ee576110ed818587611e19565b5b600073ffffffffffffffffffffffffffffffffffffffff168173ffffffffffffffffffffffffffffffffffffffff161461118157611130600086600080611c45565b60018260030160008373ffffffffffffffffffffffffffffffffffffffff1673ffffffffffffffffffffffffffffffffffffffff168152602001908152602001600020600082825403925050819055505b600073ffffffffffffffffffffffffffffffffffffffff168673ffffffffffffffffffffffffffffffffffffffff16146112065760018260030160008873ffffffffffffffffffffffffffffffffffffffff1673ffffffffffffffffffffffffffffffffffffffff168152602001908152602001600020600082825401925050819055505b8582600201600087815260200190815260200160002060006101000a81548173ffffffffffffffffffffffffffffffffffffffff021916908373ffffffffffffffffffffffffffffffffffffffff160217905550848673ffffffffffffffffffffffffffffffffffffffff168273ffffffffffffffffffffffffffffffffffffffff167fddf252ad1be2c89b69c2b068fc378daa952ba7f163c4a11628f55a4df523b3ef60405160405180910390a480925050509392505050565b7f000000000000000000000000000000000000000000000000000000000000000073ffffffffffffffffffffffffffffffffffffffff163073ffffffffffffffffffffffffffffffffffffffff16148061136e57507f000000000000000000000000000000000000000000000000000000000000000073ffffffffffffffffffffffffffffffffffffffff16611355611edd565b73ffffffffffffffffffffffffffffffffffffffff1614155b156113a5576040517fe07c8dba00000000000000000000000000000000000000000000000000000000815260040160405180910390fd5b565b6113af611558565b50565b8173ffffffffffffffffffffffffffffffffffffffff166352d1902d6040518163ffffffff1660e01b8152600401602060405180830381865afa92505050801561141a57506040513d601f19601f8201168201806040525081019061141791906130b5565b60015b61145b57816040517f4c9c8ce30000000000000000000000000000000000000000000000000000000081526004016114529190612985565b60405180910390fd5b7f360894a13ba1a3210667c828492db98dca3e2076cc3735a920a3ca505d382bbc60001b81146114c257806040517faa1d49a40000000000000000000000000000000000000000000000000000000081526004016114b99190612c33565b60405180910390fd5b6114cc8383611f34565b505050565b7f000000000000000000000000000000000000000000000000000000000000000073ffffffffffffffffffffffffffffffffffffffff163073ffffffffffffffffffffffffffffffffffffffff1614611556576040517fe07c8dba00000000000000000000000000000000000000000000000000000000815260040160405180910390fd5b565b61156061107a565b73ffffffffffffffffffffffffffffffffffffffff1661157e610ac9565b73ffffffffffffffffffffffffffffffffffffffff16146115dd576115a161107a565b6040517f118cdaa70000000000000000000000000000000000000000000000000000000081526004016115d49190612985565b60405180910390fd5b565b60006115e9611708565b905060008160000160009054906101000a900473ffffffffffffffffffffffffffffffffffffffff169050828260000160006101000a81548173ffffffffffffffffffffffffffffffffffffffff021916908373ffffffffffffffffffffffffffffffffffffffff1602179055508273ffffffffffffffffffffffffffffffffffffffff168173ffffffffffffffffffffffffffffffffffffffff167f8be0079c531659141344cd1fd0a4f28419497f9722a3daafe3b4186f6b6457e060405160405180910390a3505050565b6000806116c1611fa7565b90508091505090565b6116d2611fd2565b6116dc8282612012565b5050565b6116e8611fd2565b565b6116f2611fd2565b6116fb8161204f565b50565b611706611fd2565b565b60007f9016d09d72d40fdae2fd8ceac6b6234c7706214fd39c1cd1e609a0528c199300905090565b61174a8282604051806020016040528060008152506120d5565b5050565b6000611758611ae8565b905081816000016000858152602001908152602001600020908161177c9190613284565b507ff8e1a15aba9398e019f0b49df1a4fde98ee17ae345cb5f6b5e2c27f5033e8ce7836040516117ac9190612a1b565b60405180910390a1505050565b60006117c3610f7f565b9050600073ffffffffffffffffffffffffffffffffffffffff168373ffffffffffffffffffffffffffffffffffffffff160361183657826040517f5b08ba1800000000000000000000000000000000000000000000000000000000815260040161182d9190612985565b60405180910390fd5b818160050160008673ffffffffffffffffffffffffffffffffffffffff1673ffffffffffffffffffffffffffffffffffffffff16815260200190815260200160002060008573ffffffffffffffffffffffffffffffffffffffff1673ffffffffffffffffffffffffffffffffffffffff16815260200190815260200160002060006101000a81548160ff0219169083151502179055508273ffffffffffffffffffffffffffffffffffffffff168473ffffffffffffffffffffffffffffffffffffffff167f17307eab39ab6107e8899845ad3d59bd9653f200f220920489ca2b5937696c31846040516119299190612814565b60405180910390a350505050565b60008373ffffffffffffffffffffffffffffffffffffffff163b1115611ae1578273ffffffffffffffffffffffffffffffffffffffff1663150b7a02868685856040518563ffffffff1660e01b815260040161199694939291906133ab565b6020604051808303816000875af19250505080156119d257506040513d601f19601f820116820180604052508101906119cf919061340c565b60015b611a56573d8060008114611a02576040519150601f19603f3d011682016040523d82523d6000602084013e611a07565b606091505b506000815103611a4e57836040517f64a0ae92000000000000000000000000000000000000000000000000000000008152600401611a459190612985565b60405180910390fd5b805181602001fd5b63150b7a0260e01b7bffffffffffffffffffffffffffffffffffffffffffffffffffffffff1916817bffffffffffffffffffffffffffffffffffffffffffffffffffffffff191614611adf57836040517f64a0ae92000000000000000000000000000000000000000000000000000000008152600401611ad69190612985565b60405180910390fd5b505b5050505050565b60007f0542a41881ee128a365a727b282c86fa859579490b9bb45aab8503648c8e7900905090565b606060405180602001604052806000815250905090565b6060611b3282610fa7565b506000611b3d611b10565b90506000815111611b5d5760405180602001604052806000815250611b88565b80611b67846120f9565b604051602001611b78929190613065565b6040516020818303038152906040525b915050919050565b60007f01ffc9a7000000000000000000000000000000000000000000000000000000007bffffffffffffffffffffffffffffffffffffffffffffffffffffffff1916827bffffffffffffffffffffffffffffffffffffffffffffffffffffffff1916149050919050565b600080611c05610f7f565b905080600201600084815260200190815260200160002060009054906101000a900473ffffffffffffffffffffffffffffffffffffffff16915050919050565b6000611c4f610f7f565b90508180611c8a5750600073ffffffffffffffffffffffffffffffffffffffff168373ffffffffffffffffffffffffffffffffffffffff1614155b15611dbe576000611c9a85610fa7565b9050600073ffffffffffffffffffffffffffffffffffffffff168473ffffffffffffffffffffffffffffffffffffffff1614158015611d0557508373ffffffffffffffffffffffffffffffffffffffff168173ffffffffffffffffffffffffffffffffffffffff1614155b8015611d185750611d168185610d75565b155b15611d5a57836040517fa9fbf51f000000000000000000000000000000000000000000000000000000008152600401611d519190612985565b60405180910390fd5b8215611dbc57848673ffffffffffffffffffffffffffffffffffffffff168273ffffffffffffffffffffffffffffffffffffffff167f8c5be1e5ebec7d5bd14f71427d1e84f3dd0314c0f7b2291e5b200ac8c7c3b92560405160405180910390a45b505b8481600401600086815260200190815260200160002060006101000a81548173ffffffffffffffffffffffffffffffffffffffff021916908373ffffffffffffffffffffffffffffffffffffffff1602179055505050505050565b611e248383836121c7565b611ed857600073ffffffffffffffffffffffffffffffffffffffff168373ffffffffffffffffffffffffffffffffffffffff1603611e9957806040517f7e273289000000000000000000000000000000000000000000000000000000008152600401611e909190612a1b565b60405180910390fd5b81816040517f177e802f000000000000000000000000000000000000000000000000000000008152600401611ecf929190613439565b60405180910390fd5b505050565b6000611f0b7f360894a13ba1a3210667c828492db98dca3e2076cc3735a920a3ca505d382bbc60001b612288565b60000160009054906101000a900473ffffffffffffffffffffffffffffffffffffffff16905090565b611f3d82612292565b8173ffffffffffffffffffffffffffffffffffffffff167fbc7cd75a20ee27fd9adebab32041f755214dbc6bffa90cc0225b39da2e5c2d3b60405160405180910390a2600081511115611f9a57611f94828261235f565b50611fa3565b611fa26123e3565b5b5050565b60007ff0c57e16840df040f15088dc2f81fe391c3923bec73e23a9662efc9c229c6a0060001b905090565b611fda612420565b612010576040517fd7e6bcf800000000000000000000000000000000000000000000000000000000815260040160405180910390fd5b565b61201a611fd2565b6000612024610f7f565b9050828160000190816120379190613284565b50818160010190816120499190613284565b50505050565b612057611fd2565b600073ffffffffffffffffffffffffffffffffffffffff168173ffffffffffffffffffffffffffffffffffffffff16036120c95760006040517f1e4fbdf70000000000000000000000000000000000000000000000000000000081526004016120c09190612985565b60405180910390fd5b6120d2816115df565b50565b6120df8383612440565b6120f46120ea61107a565b6000858585611937565b505050565b60606000600161210884612539565b01905060008167ffffffffffffffff81111561212757612126612a93565b5b6040519080825280601f01601f1916602001820160405280156121595781602001600182028036833780820191505090505b509050600082602001820190505b6001156121bc578080600190039150507f3031323334353637383961626364656600000000000000000000000000000000600a86061a8153600a85816121b0576121af613462565b5b04945060008503612167575b819350505050919050565b60008073ffffffffffffffffffffffffffffffffffffffff168373ffffffffffffffffffffffffffffffffffffffff161415801561227f57508273ffffffffffffffffffffffffffffffffffffffff168473ffffffffffffffffffffffffffffffffffffffff161480612240575061223f8484610d75565b5b8061227e57508273ffffffffffffffffffffffffffffffffffffffff166122668361102f565b73ffffffffffffffffffffffffffffffffffffffff16145b5b90509392505050565b6000819050919050565b60008173ffffffffffffffffffffffffffffffffffffffff163b036122ee57806040517f4c9c8ce30000000000000000000000000000000000000000000000000000000081526004016122e59190612985565b60405180910390fd5b8061231b7f360894a13ba1a3210667c828492db98dca3e2076cc3735a920a3ca505d382bbc60001b612288565b60000160006101000a81548173ffffffffffffffffffffffffffffffffffffffff021916908373ffffffffffffffffffffffffffffffffffffffff16021790555050565b60606000808473ffffffffffffffffffffffffffffffffffffffff168460405161238991906134cd565b600060405180830381855af49150503d80600081146123c4576040519150601f19603f3d011682016040523d82523d6000602084013e6123c9565b606091505b50915091506123d985838361268c565b9250505092915050565b600034111561241e576040517fb398979f00000000000000000000000000000000000000000000000000000000815260040160405180910390fd5b565b600061242a6116b6565b60000160089054906101000a900460ff16905090565b600073ffffffffffffffffffffffffffffffffffffffff168273ffffffffffffffffffffffffffffffffffffffff16036124b25760006040517f64a0ae920000000000000000000000000000000000000000000000000000000081526004016124a99190612985565b60405180910390fd5b60006124c083836000611094565b9050600073ffffffffffffffffffffffffffffffffffffffff168173ffffffffffffffffffffffffffffffffffffffff16146125345760006040517f73c6ac6e00000000000000000000000000000000000000000000000000000000815260040161252b9190612985565b60405180910390fd5b505050565b600080600090507a184f03e93ff9f4daa797ed6e38ed64bf6a1f0100000000000000008310612597577a184f03e93ff9f4daa797ed6e38ed64bf6a1f010000000000000000838161258d5761258c613462565b5b0492506040810190505b6d04ee2d6d415b85acef810000000083106125d4576d04ee2d6d415b85acef810000000083816125ca576125c9613462565b5b0492506020810190505b662386f26fc10000831061260357662386f26fc1000083816125f9576125f8613462565b5b0492506010810190505b6305f5e100831061262c576305f5e100838161262257612621613462565b5b0492506008810190505b612710831061265157612710838161264757612646613462565b5b0492506004810190505b60648310612674576064838161266a57612669613462565b5b0492506002810190505b600a8310612683576001810190505b80915050919050565b6060826126a15761269c8261271b565b612713565b600082511480156126c9575060008473ffffffffffffffffffffffffffffffffffffffff163b145b1561270b57836040517f9996b3150000000000000000000000000000000000000000000000000000000081526004016127029190612985565b60405180910390fd5b819050612714565b5b9392505050565b60008151111561272e5780518082602001fd5b6040517fd6bda27500000000000000000000000000000000000000000000000000000000815260040160405180910390fd5b6000604051905090565b600080fd5b600080fd5b60007fffffffff0000000000000000000000000000000000000000000000000000000082169050919050565b6127a981612774565b81146127b457600080fd5b50565b6000813590506127c6816127a0565b92915050565b6000602082840312156127e2576127e161276a565b5b60006127f0848285016127b7565b91505092915050565b60008115159050919050565b61280e816127f9565b82525050565b60006020820190506128296000830184612805565b92915050565b600081519050919050565b600082825260208201905092915050565b60005b8381101561286957808201518184015260208101905061284e565b60008484015250505050565b6000601f19601f8301169050919050565b60006128918261282f565b61289b818561283a565b93506128ab81856020860161284b565b6128b481612875565b840191505092915050565b600060208201905081810360008301526128d98184612886565b905092915050565b6000819050919050565b6128f4816128e1565b81146128ff57600080fd5b50565b600081359050612911816128eb565b92915050565b60006020828403121561292d5761292c61276a565b5b600061293b84828501612902565b91505092915050565b600073ffffffffffffffffffffffffffffffffffffffff82169050919050565b600061296f82612944565b9050919050565b61297f81612964565b82525050565b600060208201905061299a6000830184612976565b92915050565b6129a981612964565b81146129b457600080fd5b50565b6000813590506129c6816129a0565b92915050565b600080604083850312156129e3576129e261276a565b5b60006129f1858286016129b7565b9250506020612a0285828601612902565b9150509250929050565b612a15816128e1565b82525050565b6000602082019050612a306000830184612a0c565b92915050565b600080600060608486031215612a4f57612a4e61276a565b5b6000612a5d868287016129b7565b9350506020612a6e868287016129b7565b9250506040612a7f86828701612902565b9150509250925092565b600080fd5b600080fd5b7f4e487b7100000000000000000000000000000000000000000000000000000000600052604160045260246000fd5b612acb82612875565b810181811067ffffffffffffffff82111715612aea57612ae9612a93565b5b80604052505050565b6000612afd612760565b9050612b098282612ac2565b919050565b600067ffffffffffffffff821115612b2957612b28612a93565b5b612b3282612875565b9050602081019050919050565b82818337600083830152505050565b6000612b61612b5c84612b0e565b612af3565b905082815260208101848484011115612b7d57612b7c612a8e565b5b612b88848285612b3f565b509392505050565b600082601f830112612ba557612ba4612a89565b5b8135612bb5848260208601612b4e565b91505092915050565b60008060408385031215612bd557612bd461276a565b5b6000612be3858286016129b7565b925050602083013567ffffffffffffffff811115612c0457612c0361276f565b5b612c1085828601612b90565b9150509250929050565b6000819050919050565b612c2d81612c1a565b82525050565b6000602082019050612c486000830184612c24565b92915050565b600060208284031215612c6457612c6361276a565b5b6000612c72848285016129b7565b91505092915050565b600067ffffffffffffffff821115612c9657612c95612a93565b5b612c9f82612875565b9050602081019050919050565b6000612cbf612cba84612c7b565b612af3565b905082815260208101848484011115612cdb57612cda612a8e565b5b612ce6848285612b3f565b509392505050565b600082601f830112612d0357612d02612a89565b5b8135612d13848260208601612cac565b91505092915050565b60008060408385031215612d3357612d3261276a565b5b6000612d41858286016129b7565b925050602083013567ffffffffffffffff811115612d6257612d6161276f565b5b612d6e85828601612cee565b9150509250929050565b612d81816127f9565b8114612d8c57600080fd5b50565b600081359050612d9e81612d78565b92915050565b60008060408385031215612dbb57612dba61276a565b5b6000612dc9858286016129b7565b9250506020612dda85828601612d8f565b9150509250929050565b60008060008060808587031215612dfe57612dfd61276a565b5b6000612e0c878288016129b7565b9450506020612e1d878288016129b7565b9350506040612e2e87828801612902565b925050606085013567ffffffffffffffff811115612e4f57612e4e61276f565b5b612e5b87828801612b90565b91505092959194509250565b60008060408385031215612e7e57612e7d61276a565b5b6000612e8c858286016129b7565b9250506020612e9d858286016129b7565b9150509250929050565b7f4e487b7100000000000000000000000000000000000000000000000000000000600052602260045260246000fd5b60006002820490506001821680612eee57607f821691505b602082108103612f0157612f00612ea7565b5b50919050565b6000606082019050612f1c6000830186612976565b612f296020830185612a0c565b612f366040830184612976565b949350505050565b6000819050919050565b600067ffffffffffffffff82169050919050565b6000819050919050565b6000612f81612f7c612f7784612f3e565b612f5c565b612f48565b9050919050565b612f9181612f66565b82525050565b6000602082019050612fac6000830184612f88565b92915050565b7f4e487b7100000000000000000000000000000000000000000000000000000000600052601160045260246000fd5b6000612fec826128e1565b91507fffffffffffffffffffffffffffffffffffffffffffffffffffffffffffffffff820361301e5761301d612fb2565b5b600182019050919050565b600081905092915050565b600061303f8261282f565b6130498185613029565b935061305981856020860161284b565b80840191505092915050565b60006130718285613034565b915061307d8284613034565b91508190509392505050565b61309281612c1a565b811461309d57600080fd5b50565b6000815190506130af81613089565b92915050565b6000602082840312156130cb576130ca61276a565b5b60006130d9848285016130a0565b91505092915050565b60008190508160005260206000209050919050565b60006020601f8301049050919050565b600082821b905092915050565b6000600883026131447fffffffffffffffffffffffffffffffffffffffffffffffffffffffffffffffff82613107565b61314e8683613107565b95508019841693508086168417925050509392505050565b600061318161317c613177846128e1565b612f5c565b6128e1565b9050919050565b6000819050919050565b61319b83613166565b6131af6131a782613188565b848454613114565b825550505050565b600090565b6131c46131b7565b6131cf818484613192565b505050565b5b818110156131f3576131e86000826131bc565b6001810190506131d5565b5050565b601f82111561323857613209816130e2565b613212846130f7565b81016020851015613221578190505b61323561322d856130f7565b8301826131d4565b50505b505050565b600082821c905092915050565b600061325b6000198460080261323d565b1980831691505092915050565b6000613274838361324a565b9150826002028217905092915050565b61328d8261282f565b67ffffffffffffffff8111156132a6576132a5612a93565b5b6132b08254612ed6565b6132bb8282856131f7565b600060209050601f8311600181146132ee57600084156132dc578287015190505b6132e68582613268565b86555061334e565b601f1984166132fc866130e2565b60005b82811015613324578489015182556001820191506020850194506020810190506132ff565b86831015613341578489015161333d601f89168261324a565b8355505b6001600288020188555050505b505050505050565b600081519050919050565b600082825260208201905092915050565b600061337d82613356565b6133878185613361565b935061339781856020860161284b565b6133a081612875565b840191505092915050565b60006080820190506133c06000830187612976565b6133cd6020830186612976565b6133da6040830185612a0c565b81810360608301526133ec8184613372565b905095945050505050565b600081519050613406816127a0565b92915050565b6000602082840312156134225761342161276a565b5b6000613430848285016133f7565b91505092915050565b600060408201905061344e6000830185612976565b61345b6020830184612a0c565b9392505050565b7f4e487b7100000000000000000000000000000000000000000000000000000000600052601260045260246000fd5b600081905092915050565b60006134a782613356565b6134b18185613491565b93506134c181856020860161284b565b80840191505092915050565b60006134d9828461349c565b91508190509291505056fea26469706673582212204929f83094d2baa6a9eaa8fb29253c82e4eb482f187242a924762c0c7649e13e64736f6c634300081c0033",
  "linkReferences": {},
  "deployedLinkReferences": {}
}